:020000040800F2
:1000000000500020910E0008E10E0008E10E0008EB
:10001000E10E0008E10E0008E10E000800000000FB
:10002000000000000000000000000000E10E0008D9
:10003000E10E000800000000E10E0008750B00084A
:10004000E10E0008E10E0008E10E0008E10E0008D4
:10005000E10E0008E10E0008E10E0008E10E0008C4
:10006000E10E0008E10E0008E10E0008E10E0008B4
:10007000E10E0008E10E0008E10E0008E10E0008A4
:10008000E10E0008E10E0008E10E0008E10E000894
:10009000E10E0008E10E0008E10E0008E10E000884
:1000A000E10E0008E10E0008E10E0008E10E000874
:1000B000E10E0008E10E0008E10E0008E10E000864
:1000C000E10E0008E10E0008E10E0008E10E000854
:1000D000E10E0008E10E0008E10E0008E10E000844
:1000E000E10E0008E10E000800000000E10E00082B
:1000F000E10E0008E10E0008E10E0008E10E000824
:10010000E10E0008E10E0008E10E0008E10E000813
:10011000E10E0008E10E0008E10E0008E10E000803
:10012000E10E0008E10E0008E10E0008E10E0008F3
:1001300010B5054C237833B9044B13B10448AFF321
:1001400000800123237010BD380000200000000053
:100150002C0F000808B5034B1BB103490348AFF34C
:10016000008008BD000000003C0000202C0F0008AB
:1001700080B584B000AF0023FB6014E000237B60F7
:100180001B4AFB6832F81330BB800223BB71194A4B
:10019000FB6852F823303A1D1146184600F0FCFB6C
:1001A000FB680133FB60FB68032BE7DD0023BB60CA
:1001B00016E000233B60104ABB6832F813303B80E6
:1001C0000423BB700123FB700C4ABB6852F8233038
:1001D0003A461146184600F0DFFBBB680133BB60AE
:1001E000BB68032BE5DD00BF00BF1037BD4680BDF7
:1001F000100000200000002028000020180000202F
:1002000090B589B000AF7860324B07F108040FCB8E
:1002100084E80F000023FB6153E02F4AFB6952F88A
:1002200023002E4AFB6932F813300022194600F0F1
:1002300048FC0023BB6132E0294ABB6952F8232005
:100240002849BB6931F813301946104600F022FCEA
:100250000346002B20D100BF214ABB6952F823205E
:100260002049BB6931F813301946104600F012FCE2
:100270000346002BF0D007F10802BB699900FB6927
:100280000B4413447B60BB699B002033DA19FB6984
:100290001344183B1B7818E0BB690133BB61BB6991
:1002A000032BC9DD0C4AFB6952F823000B4AFB699A
:1002B00032F813300122194600F003FCFB690133C8
:1002C000FB61FB69032BA8DD002318462437BD46DC
:1002D00090BD00BF440F0008180000202800002037
:1002E000000000201000002080B58AB000AF7B69BC
:1002F00004229A707B690122DA707B6908221A80D5
:100300007969424800F048FB3B6904229A703B69D6
:100310000122DA703B6904221A8039693B4800F0F7
:100320003BFBFB6804229A70FB680122DA70FB68D1
:1003300001221A80F968364800F02EFBBB680422BF
:100340009A70BB680122DA70BB6802221A80B96811
:100350002F4800F021FB7B6804229A707B68012201
:10036000DA707B6804221A807968294800F014FB4F
:100370003B6804229A703B680122DA703B681022C5
:100380001A803968224800F007FB00237B6202E0F4
:100390007B6A01337B627B6A42F20F729342F7DD24
:1003A000022000F045F800233B6202E03B6A013383
:1003B0003B623B6A42F20F729342F7DD282000F065
:1003C00037F80023FB6102E0FB690133FB61FB6945
:1003D00042F20F729342F7DD0C2000F029F806205C
:1003E00000F026F8012000F023F80023BB6102E0B2
:1003F000BB690133BB61BB6942F20F729342F7DD07
:1004000000BF00BF2837BD4680BD00BF00080140C7
:10041000000C014080B582B000AF0346FB71FB7950
:10042000184600F0ABF800BF0837BD4680BD00009D
:1004300080B586B000AF0346FB71002208214D480D
:1004400000F03FFBFB791B09DBB203F00103DBB2D9
:100450001A460121484800F034FBFB795B09DBB206
:1004600003F00103DBB21A460221434800F029FBE6
:10047000FB799B09DBB203F00103DBB21A460421CE
:100480003D4800F01EFBFB79DB09DBB21A46102168
:10049000394800F016FB01220421364800F011FB18
:1004A00000237B6102E07B6901337B617B6942F25F
:1004B0000F729342F7DD002204212E4800F001FB69
:1004C00000233B6102E03B6901333B613B6942F23F
:1004D0000F729342F7DDFB7903F00103DBB21A469A
:1004E0000121254800F0EDFAFB795B08DBB203F04F
:1004F0000103DBB21A4602211F4800F0E2FAFB7941
:100500009B08DBB203F00103DBB21A4604211A4850
:1005100000F0D7FAFB79DB08DBB203F00103DBB2B2
:100520001A461021144800F0CCFA01220421114887
:1005300000F0C7FA0023FB6002E0FB680133FB60B8
:10054000FB6842F20F729342F7DD00220421094852
:1005500000F0B7FA0023BB6002E0BB680133BB6068
:10056000BB6842F20F729342F7DD00BF00BF18373D
:10057000BD4680BD00080140000C014080B586B03A
:1005800000AF0346FB71012208214D4800F099FAA3
:10059000FB791B09DBB203F00103DBB21A46012130
:1005A000484800F08EFAFB795B09DBB203F00103E7
:1005B000DBB21A460221434800F083FAFB799B091B
:1005C000DBB203F00103DBB21A4604213D4800F020
:1005D00078FAFB79DB09DBB21A461021394800F0C2
:1005E00070FA01220421364800F06BFA00237B6187
:1005F00002E07B6901337B617B6942F20F729342B7
:10060000F7DD002204212E4800F05BFA00233B6155
:1006100002E03B6901333B613B6942F20F72934256
:10062000F7DDFB7903F00103DBB21A46012125480F
:1006300000F047FAFB795B08DBB203F00103DBB2A1
:100640001A4602211F4800F03CFAFB799B08DBB2F6
:1006500003F00103DBB21A4604211A4800F031FA14
:10066000FB79DB08DBB203F00103DBB21A46102191
:10067000144800F026FA01220421114800F021FA62
:100680000023FB6002E0FB680133FB60FB6842F281
:100690000F729342F7DD00220421094800F011FA9D
:1006A0000023BB6002E0BB680133BB60BB6842F261
:1006B0000F729342F7DD00BF00BF1837BD4680BD03
:1006C00000080140000C014080B500AF0120FFF799
:1006D000AFFE00BF80BD000080B584B000AF786081
:1006E0000023FB600023FB720023BB727B68002B9E
:1006F00005DA2D20FFF78EFE7B685B427B607B680E
:10070000002B2BD13020FFF785FE54E07A682C4B6C
:1007100083FB02139910D317C91A0B469B000B4495
:100720005B00D11A0B46BB72FB68002B05D1BB7A6C
:10073000002B02D1FB7A0133FB72FA6813469B004F
:1007400013445B001A46BB7A1344FB607B681C4A67
:1007500082FB03129210DB17D31A7B607B68002B9D
:10076000D4D11BE0FA68164B83FB02139910D31700
:10077000C91A0B469B000B445B00D11A0B46BB7297
:10078000BB7A3033DBB21846FFF744FEFB680C4AF5
:1007900082FB03129210DB17D31AFB60FB68002B5D
:1007A000E0D105E03020FFF735FEFB7A013BFB721C
:1007B000FB7A002BF6D100BF1037BD4680BD00BFCD
:1007C0006766666680B584B000AF03460A46FB7173
:1007D0001346BB710023FB73FB79032B19D801A2CD
:1007E00052F823F0F5070008FB070008030800088B
:1007F0000B080008BB79FB730BE0BB794033FB733C
:1008000007E0BB791433FB7303E0BB795433FB730C
:1008100000BFFB7B63F07F03DBB21846FFF708FEE7
:1008200000BF1037BD4680BD80B483B000AF034623
:10083000FB80FB88B3F5004F00F0A580B3F5004FB7
:1008400000F3A380B3F5804F00F09B80B3F5804F99
:1008500000F39B80B3F5005F00F09180B3F5005F7B
:1008600000F39380B3F5805F00F08780B3F5805F7D
:1008700000F38B80B3F5006F7DD0B3F5006F00F30C
:100880008480B3F5806F74D0B3F5806F7DDCB3F5F1
:10089000007F6CD0B3F5007F77DCB3F5807F64D048
:1008A000B3F5807F71DC802B5DD0802B6DDC202B3D
:1008B00048DC002B69DD013B1F2B66D801A252F8F2
:1008C00023F000BF4B0900084F0900088B090008FE
:1008D000530900088B0900088B0900088B090008E0
:1008E000570900088B0900088B0900088B090008CC
:1008F0008B0900088B0900088B0900088B09000888
:100900005B0900088B0900088B0900088B090008A7
:100910008B0900088B0900088B0900088B09000867
:100920008B0900088B0900088B0900088B09000857
:100930008B0900088B0900088B0900088B09000847
:100940005F090008402B0CD01FE000231EE00423A9
:100950001CE008231AE00C2318E0102316E01423EF
:1009600014E0182312E01C2310E000230EE00423FF
:100970000CE008230AE00C2308E0102306E014230F
:1009800004E0182302E01C2300E0002318460C3783
:10099000BD4680BC704700BF90B585B000AF7860A1
:1009A00039600023BB600023FB733B681B88FF2B6F
:1009B00001D87B6801E07B680433BB603B681B881F
:1009C0001846FFF731FF03461A460F239340DA43D8
:1009D000BB681B681A40BB681A603B689B78042B95
:1009E0000BD03B689B78052B07D03B689B78062B88
:1009F00003D03B689B78072B0ED13B689B78043B68
:100A00009B005AB23B68DB785BB203F00F035BB22A
:100A100013435BB2FB732BE03B689B78002B03D046
:100A20003B689B78012B04D13B689B789B00FB7350
:100A30001EE03B689B78082B04D13B689B789B00A9
:100A4000FB7315E00823FB733B689B78022B07D1EF
:100A50007B68DB683A6812881A437B68DA6007E0D3
:100A60007B68DB683A681288D2431A407B68DA6098
:100A7000FC7B3B681B881846FFF7D6FE034604FA4A
:100A800003F2BB681B681A43BB681A6000BF1437C7
:100A9000BD4690BD80B485B000AF78600B467B80CA
:100AA0007B689A687B881340002B02D00123FB737C
:100AB00001E00023FB73FB7B18461437BD4680BC66
:100AC000704780B483B000AF78600B467B801346DC
:100AD0007B707B78002B03D07A887B681A6102E0F8
:100AE0007A887B685A6100BF0C37BD4680BC70476E
:100AF00080B400AF074B1B68064A43F00403136041
:100B0000044B1B68034A43F00203136000BFBD4659
:100B100080BC704710E000E080B400AF044B1B685D
:100B2000034A43F00103136000BFBD4680BC704719
:100B300010E000E080B483B000AF7860034A7B68C7
:100B4000136000BF0C37BD4680BC704754000020C6
:100B500080B483B000AF7860396005497B683A683B
:100B600002FB03F34B6000BF0C37BD4680BC7047EF
:100B700010E000E080B500AF024B1B68984700BF53
:100B800080BD00BF5400002080B584B000AF786005
:100B900039607B68DBB23A68D2B211461846FFF77B
:100BA00011FE3B68032B0CD1214B1B68092B08DC81
:100BB0000020FFF791FD1E4B1B681846FFF78CFDC8
:100BC00028E03B68032B09D1194B1B68092B05DD75
:100BD000174B1B681846FFF77FFD1BE03B68002B97
:100BE0000CD1144B1B68092B08DC0020FFF774FDA7
:100BF000104B1B681846FFF76FFD0BE03B68002B9E
:100C000008D10C4B1B68092B04DD0A4B1B681846E6
:100C1000FFF762FD0023FB6002E0FB680133FB602D
:100C2000FB68312BF9DD00BF00BF1037BD4680BD2A
:100C3000300000203400002080B500AF104B1B684E
:100C400001330F4A13600F4B1B68013B0D4A1360C1
:100C500003210020FFF798FF0A4B1B68002B0DD1E2
:100C6000094B1B68013B084A1360064B3B221A6084
:100C7000FFF72AFD00210020FFF786FF00BF80BD9F
:100C800058000020300000203400002080B588B0DB
:100C900000AF784B9B69774A43F004039361754B2F
:100CA0009B69744A43F008039361FFF71DFBFFF74C
:100CB0005FFA0023BB61BB6904229A70BB69012201
:100CC000DA70BB6980221A80B9696B48FFF764FE4D
:100CD000FFF70EFF08216948FFF73AFF6848FFF762
:100CE00029FFFFF719FF00237B61664B1B6818463D
:100CF000FFF7F2FC3A20FFF78DFB634B1B681846A9
:100D0000FFF7EAFC0023FB6102E0FB690133FB61B2
:100D1000FB69632BF9DD01233B610123FB600123A8
:100D2000BB6001237B6000210020FFF72DFF786965
:100D3000FFF766FA03461A46544B1A70534B1B785A
:100D4000412B51D100210020FFF73CFD7869FFF7CE
:100D500057FA03461A464D4B1A704C4B1B782F2BF3
:100D6000F4D94A4B1B78392BF0D8484B1B78303BD1
:100D7000BB6000BF454B1B781846FFF74BFB0121BA
:100D80000020FFF71FFD7869FFF73AFA03461A467D
:100D90003E4B1A703D4B1B782F2BF4D93B4B1B78E5
:100DA000392BF0D8394B1B78303B7B6000BF374B79
:100DB0001B781846FFF72EFBBA6813469B001344B6
:100DC0005B001A467B6813443B2B0DDCBA68134664
:100DD0009B0013445B001A467B681344294A136046
:100DE00000210020FFF7D0FE284B1B78422B9ED11C
:100DF0007869FFF705FA03461A46244B1A70234B0D
:100E00001B782F2BF4D9214B1B78392BF0D81F4B93
:100E10001B78303B3B617869FFF7F2F903461A46CD
:100E20001A4B1A70194B1B782F2BF4D9174B1B78C0
:100E3000392BF0D8154B1B78303BFB6000BF3A696B
:100E400013469B0013445B001A46FB6813443B2B7C
:100E50003FF76DAF3A6913469B0013445B001A4697
:100E6000FB681344084A136001210020FFF78CFE41
:100E70005DE700BF00100240000C014040420F003F
:100E8000390C000834000020300000205C000020F5
:100E90000D488546AFF300800C480D490D4A0023EC
:100EA00002E0D458C4500433C4188C42F9D30A4A1F
:100EB0000A4C002301E013600432A242FBD300F08D
:100EC00011F8FFF7E3FEFEE70050002000000020CD
:100ED000380000205C0F000838000020600000206F
:100EE000FEE7000070B500260C4D0D4C641BA410ED
:100EF000A64209D100F01AF800260A4D0A4C641BDC
:100F0000A410A64205D170BD55F8043B98470136A0
:100F1000EEE755F8043B98470136F2E7540F000816
:100F2000540F0008540F0008580F0008F8B500BF10
:100F3000F8BC08BC9E467047F8B500BFF8BC08BCBA
:040F40009E46704712
:100F44003132334134353642373839432A30234439
:040F5400550100083B
:040F5800310100085B
:100F5C000008014000080140000801400008014061
:100F6C0000100020004000800008014000080140F3
:100F7C0000080140000801400001000200040008C4
:080F8C000A0000000F00000044
:0400000508000E9150
:00000001FF
