:020000040800F2
:1000000000500020F11D0008311D00083D1D0008B2
:10001000431D0008491D00084F1D00080000000096
:100020000000000000000000000000004177000810
:10003000551D00080000000021790008611D00081E
:10004000391E00087B1D0008391E0008391E0008F3
:10005000391E0008871D0008391E0008391E0008D7
:10006000391E0008391E0008391E0008391E000814
:10007000391E0008391E0008391E0008391E000804
:10008000391E0008391E0008951D0008391E000899
:10009000391E0008391E0008391E0008391E0008E4
:1000A000391E0008391E0008391E0008A91D000865
:1000B000391E0008391E0008391E0008391E0008C4
:1000C000391E0008391E0008391E0008391E0008B4
:1000D000391E0008BD1D0008D11D0008391E00088A
:1000E000391E0008391E0008391E000800000000F3
:1000F0000000000000000000000000000000000000
:0C01000000000000000000005FF808F1A3
:1001100010B5054C237833B9044B13B10448AFF341
:1001200000800123237010BDA0000020000000000B
:10013000947F000808B5034B1BB103490348AFF394
:10014000008008BD00000000A4000020947F00088B
:1001500081F0004102E000BF83F0004330B54FEA78
:1001600041044FEA430594EA050F08BF90EA020FE5
:100170001FBF54EA000C55EA020C7FEA645C7FEA78
:10018000655C00F0E2804FEA5454D4EB5555B8BF9B
:100190006D420CDD2C4480EA020281EA030382EA0C
:1001A000000083EA010180EA020281EA0303362D9E
:1001B00088BF30BD11F0004F4FEA01314FF4801C71
:1001C0004CEA113102D0404261EB410113F0004F83
:1001D0004FEA03334CEA133302D0524263EB43033A
:1001E00094EA050F00F0A780A4F10104D5F1200ED8
:1001F0000DDB02FA0EFC22FA05F2801841F1000133
:1002000003FA0EF2801843FA05F359410EE0A5F106
:1002100020050EF1200E012A03FA0EFC28BF4CF037
:10022000020C43FA05F3C01851EBE37101F00045ED
:1002300007D54FF0000EDCF1000C7EEB00006EEBFA
:100240000101B1F5801F1BD3B1F5001F0CD3490884
:100250005FEA30004FEA3C0C04F101044FEA4452DB
:1002600012F5800F80F09A80BCF1004F08BF5FEA62
:10027000500C50F1000041EB045141EA050130BD42
:100280005FEA4C0C404141EB0101013C28BFB1F554
:10029000801FE9D291F0000F04BF01460020B1FA9F
:1002A00081F308BF2033A3F10B03B3F120020CDA72
:1002B0000C3208DD02F1140CC2F10C0201FA0CF050
:1002C00021FA02F10CE002F11402D8BFC2F1200CB5
:1002D00001FA02F120FA0CFCDCBF41EA0C0190406B
:1002E000E41AA2BF01EB0451294330BD6FEA0404B4
:1002F0001F3C1CDA0C340EDC04F11404C4F120029F
:1003000020FA04F001FA02F340EA030021FA04F3B0
:1003100045EA030130BDC4F10C04C4F1200220FA07
:1003200002F001FA04F340EA0300294630BD21FA45
:1003300004F0294630BD94F0000F83F4801306BF0B
:1003400081F480110134013D4EE77FEA645C18BFFF
:100350007FEA655C29D094EA050F08BF90EA020F96
:1003600005D054EA000C04BF1946104630BD91EA8E
:10037000030F1EBF0021002030BD5FEA545C05D191
:100380004000494128BF41F0004130BD14F58004D0
:100390003CBF01F5801130BD01F0004545F0FE4144
:1003A00041F470014FF0000030BD7FEA645C1ABF79
:1003B000194610467FEA655C1CBF0B46024650EAB0
:1003C000013406BF52EA033591EA030F41F40021DC
:1003D00030BD00BF90F0000F04BF0021704730B562
:1003E0004FF4806404F132044FF000054FF0000137
:1003F00050E700BF90F0000F04BF0021704730B5F8
:100400004FF4806404F1320410F0004548BF4042CC
:100410004FF000013EE700BF42004FEAE2014FEA21
:1004200031014FEA02701FBF12F07F4393F07F4FFC
:1004300081F06051704732F07F4208BF704793F0FF
:100440007F4F04BF41F40021704730B54FF4607412
:1004500001F0004521F000411CE700BF50EA010215
:1004600008BF704730B54FF000050AE050EA0102BE
:1004700008BF704730B511F0004502D5404261EB2E
:1004800041014FF4806404F132045FEA915C3FF46F
:10049000D8AE4FF003025FEADC0C18BF03325FEA0C
:1004A000DC0C18BF033202EBDC02C2F1200300FABD
:1004B00003FC20FA02F001FA03FE40EA0E0021FAE2
:1004C00002F11444BDE600BF70B54FF0FF0C4CF4D0
:1004D000E06C1CEA11541DBF1CEA135594EA0C0F82
:1004E00095EA0C0F00F0DEF82C4481EA030621EABD
:1004F0004C5123EA4C5350EA013518BF52EA0335F8
:1005000041F4801143F4801338D0A0FB02CE4FF0A9
:100510000005E1FB02E506F00042E0FB03E54FF0D9
:100520000006E1FB03569CF0000F18BF4EF0010ED1
:10053000A4F1FF04B6F5007F64F5407404D25FEACD
:100540004E0E6D4146EB060642EAC62141EA555180
:100550004FEAC52040EA5E504FEACE2EB4F1FD0CC2
:1005600088BFBCF5E06F1ED8BEF1004F08BF5FEA40
:10057000500E50F1000041EB045170BD06F00046F2
:1005800046EA010140EA020081EA0301B4EB5C049F
:10059000C2BFD4EB0C0541EA045170BD41F4801197
:1005A0004FF0000E013C00F3AB8014F1360FDEBFBC
:1005B000002001F0004170BDC4F10004203C35DA98
:1005C0000C341BDC04F11404C4F1200500FA05F31B
:1005D00020FA04F001FA05F240EA020001F00042BC
:1005E00021F0004110EBD37021FA04F642EB060132
:1005F0005EEA430E08BF20EAD37070BDC4F10C045C
:10060000C4F1200500FA04F320FA05F001FA04F21F
:1006100040EA020001F0004110EBD37041F100010B
:100620005EEA430E08BF20EAD37070BDC4F1200516
:1006300000FA05F24EEA020E20FA04F301FA05F27E
:1006400043EA020321FA04F001F0004121FA04F226
:1006500020EA020000EBD3705EEA430E08BF20EAF6
:10066000D37070BD94F0000F0FD101F00046400030
:1006700041EB010111F4801F08BF013CF7D041EAB2
:10068000060195F0000F18BF704703F000465200B6
:1006900043EB030313F4801F08BF013DF7D043EA87
:1006A0000603704794EA0C0F0CEA135518BF95EA3D
:1006B0000C0F0CD050EA410618BF52EA4306D1D1C4
:1006C00081EA030101F000414FF0000070BD50EAE3
:1006D000410606BF1046194652EA430619D094EA6D
:1006E0000C0F02D150EA013613D195EA0C0F05D157
:1006F00052EA03361CBF104619460AD181EA0301AB
:1007000001F0004141F0FE4141F470014FF0000062
:1007100070BD41F0FE4141F4780170BD70B54FF0FD
:10072000FF0C4CF4E06C1CEA11541DBF1CEA13557D
:1007300094EA0C0F95EA0C0F00F0A7F8A4EB05045F
:1007400081EA030E52EA03354FEA013100F0888056
:100750004FEA03334FF0805545EA131343EA12631F
:100760004FEA022245EA111545EA10654FEA0026D4
:100770000EF000419D4208BF964244F1FD0404F58D
:10078000407402D25B084FEA3202B61A65EB0305E9
:100790005B084FEA32024FF480104FF4002CB6EBA6
:1007A000020E75EB030E22BFB61A754640EA0C0026
:1007B0005B084FEA3202B6EB020E75EB030E22BF66
:1007C000B61A754640EA5C005B084FEA3202B6EBA7
:1007D000020E75EB030E22BFB61A754640EA9C0066
:1007E0005B084FEA3202B6EB020E75EB030E22BF36
:1007F000B61A754640EADC0055EA060E18D04FEAF4
:10080000051545EA16754FEA06164FEAC30343EA93
:1008100052734FEAC2025FEA1C1CC0D111F4801F60
:100820000BD141EA00014FF000004FF0004CB6E759
:1008300011F4801F04BF01430020B4F1FD0C88BFF8
:10084000BCF5E06F3FF6AFAEB5EB030C04BFB6EB03
:10085000020C5FEA500C50F1000041EB045170BDF6
:100860000EF0004E4EEA113114EB5C04C2BFD4EB23
:100870000C0541EA045170BD41F480114FF0000EA7
:10088000013C90E645EA060E8DE60CEA135594EA23
:100890000C0F08BF95EA0C0F3FF43BAF94EA0C0F26
:1008A0000AD150EA01347FF434AF95EA0C0F7FF49B
:1008B00025AF104619462CE795EA0C0F06D152EAEF
:1008C00003353FF4FDAE1046194622E750EA4106D3
:1008D00018BF52EA43067FF4C5AE50EA41047FF4E4
:1008E0000DAF52EA43057FF4EBAE12E74FEA410247
:1008F000B2F1E04324BFB3F5001CDCF1FE5C0DD97E
:1009000001F0004C4FEAC0024CEA5070B2F1004FC7
:1009100040EB830008BF20F00100704711F0804FCA
:1009200021D113F13872BCBF01F00040704741F48F
:1009300080114FEA5252C2F11802C2F1200C10FA93
:100940000CF320FA02F018BF40F001004FEAC12377
:100950004FEAD32303FA0CFC40EA0C0023FA02F31B
:100960004FEA4303CCE77FEA625307D150EA0133F1
:100970001EBF4FF0FE4040F44000704701F00040C1
:1009800040F0FE4040F40000704700BF4FF0FF3CD5
:1009900006E000BF4FF0010C02E000BF4FF0010C79
:1009A0004DF804CD4FEA40024FEA41037FEA226C42
:1009B00018BF7FEA236C11D001B052EA530C18BF64
:1009C00090EA010F58BFB2EB030088BFC81738BFC9
:1009D0006FEAE17018BF40F0010070477FEA226CB7
:1009E00002D15FEA402C05D17FEA236CE4D15FEAB3
:1009F000412CE1D05DF8040B704700BF84460846E7
:100A00006146FFE70FB5FFF7C9FF002848BF10F1A7
:100A1000000F0FBD4DF808EDFFF7F4FF0CBF0120EC
:100A200000205DF808FB00BF4DF808EDFFF7EAFF76
:100A300034BF012000205DF808FB00BF4DF808ED31
:100A4000FFF7E0FF94BF012000205DF808FB00BF26
:100A50004DF808EDFFF7D2FF94BF012000205DF8AC
:100A600008FB00BF4DF808EDFFF7C8FF34BF0120B9
:100A700000205DF808FB00BF80B582B000AF786051
:100A80007B681B68184600F086F800BF0837BD4633
:100A900080BD80B582B000AF78607B681B680022A3
:100AA0000021184600F000F97B681B680022012134
:100AB000184600F0F9F800BF0837BD4680BD80B584
:100AC00082B000AF78607B681B6801220021184665
:100AD00000F0EAF87B681B6801220121184600F04B
:100AE000E3F800BF0837BD4680BD80B582B000AFD7
:100AF00078607B681B6800220021184600F0D4F85B
:100B00007B681B6801220121184600F0CDF800BF68
:100B10000837BD4680BD80B582B000AF78607B6885
:100B20001B6801220021184600F0BEF87B681B6894
:100B300000220121184600F0B7F800BF0837BD4673
:100B400080BD80B582B000AF78600B467B807B684B
:100B50001B687A880021184600F049F87B681B68FA
:100B60007A880121184600F042F800BF0837BD46D8
:100B700080BD80B582B000AF78600B467B801346A5
:100B80007B707A787B881946786802F0F1F800BFAC
:100B90000837BD4680BD80B582B000AF78607B6805
:100BA0009B69184602F0DAFD7B685B6A184602F022
:100BB000D5FD7B689A697B685B691946104602F02F
:100BC00067FE7B685A6A7B681B6A1946104602F00A
:100BD0005FFE00220021786800F066F80022012103
:100BE000786800F061F800BF0837BD4680BD80B46A
:100BF00085B000AF78600B46FB7013463B803B88A6
:100C0000FB60FB78002B23D17B685B69002B05D14F
:100C10007B689B691B68FA685A6340E07B685B6984
:100C2000042B05D17B689B691A68FB68936336E0E7
:100C30007B685B69082B05D17B689B691A68FB6838
:100C4000D3632CE07B689B691A68FB68136426E019
:100C5000FB78012B23D17B681B6A002B05D17B68B5
:100C60005B6A1B68FA685A6319E07B681B6A042B8D
:100C700005D17B685B6A1A68FB6893630FE07B6849
:100C80001B6A082B05D17B685B6A1A68FB68D36313
:100C900005E07B685B6A1A68FB681364FFE700BFC6
:100CA0001437BD4680BC704780B582B000AF786015
:100CB0000B46FB701346BB70FB78002B3BD1BB7817
:100CC000012B10D17B6818687B689B88012219462C
:100CD000FFF74FFF7B6818687B68DB8800221946A6
:100CE000FFF747FF65E0BB78022B10D17B681868DF
:100CF0007B689B8800221946FFF73BFF7B681868DA
:100D00007B68DB8801221946FFF733FF51E0BB788F
:100D1000002B4ED17B6818687B689B88002219469F
:100D2000FFF727FF7B6818687B68DB88002219467D
:100D3000FFF71FFF3DE0FB78012B3AD1BB78012B79
:100D400010D17B6898687B689B8901221946FFF760
:100D500010FF7B6898687B68DB8900221946FFF7E3
:100D600008FF26E0BB78022B10D17B6898687B686F
:100D70009B8900221946FFF7FCFE7B6898687B6818
:100D8000DB8901221946FFF7F4FE12E0BB78002B45
:100D90000FD17B6898687B689B8900221946FFF712
:100DA000E8FE7B6898687B68DB8900221946FFF7BC
:100DB000E0FE00BF0837BD4680BD000080B485B0AE
:100DC00000AFF860B9607A60FB68064A1A60BB68D9
:100DD000054A1A607B6880221A6000BF1437BD463E
:100DE00080BC7047BC00002070010020B0B59EB0F0
:100DF00000AF01F023F800F091F800F085FA00F060
:100E00002FFA00F057FA00F079F900F0CFF900F06E
:100E1000E1F800F01DF93448FFF72EFE334801F0E9
:100E200047F90021324802F025FE00233B670023EA
:100E30007B6707F170030121184604F0F1FB0346BC
:100E40002C4A136004F01EFC03462B4A13602B4B04
:100E500007F154041D460FCD0FC495E8070084E840
:100E6000070007F154030021184604F06DFB034608
:100E7000234A1360234B07F138041D460FCD0FC4DE
:100E800095E8070084E8070007F1380300211846B9
:100E900004F05AFB03461C4A13601C4B07F11C0468
:100EA0001D460FCD0FC495E8070084E8070007F141
:100EB0001C030021184604F047FB0346144A136044
:100EC000144B3C461D460FCD0FC495E8070084E83F
:100ED00007003B460021184604F036FB03460E4A45
:100EE000136004F02AFBFEE72800002070030020B6
:100EF000A0030020180500201C050020E07F00084A
:100F000014050020FC7F0008080500201880000858
:100F10000C050020348000081005002080B594B036
:100F200000AF07F1280328220021184606F06CFFC5
:100F300007F1140300221A605A609A60DA601A619D
:100F40003B1D00221A605A609A60DA600123BB627E
:100F50004FF48033FB6200233B630123BB63022316
:100F60007B644FF48033BB644FF4E013FB6407F100
:100F70002803184601F02CFF0346002B01D000F097
:100F8000D1FC0F237B610223BB610023FB614FF483
:100F900080633B6200237B6207F114030221184641
:100FA00002F098F90346002B01D000F0BBFC0223AD
:100FB0007B604FF40043FB603B1D184602F018FBBA
:100FC0000346002B01D000F0ADFC00BF5037BD46FA
:100FD00080BD000080B584B000AF3B1D00221A60C8
:100FE0005A609A60184B194A1A60174B00229A608F
:100FF000154B01221A73144B00221A75124B4FF431
:101000006022DA61104B00225A600F4B01221A61F4
:101010000D4800F075FF0346002B01D000F082FC64
:1010200008237B600123BB600023FB603B1D194646
:10103000054801F0BDF90346002B01D000F072FC19
:1010400000BF1037BD4680BD70030020002801405E
:1010500080B586B000AF07F1100300221A605A6015
:101060003B4600221A605A609A60DA60214B224A9D
:101070001A60204B47225A601E4B00229A601D4B7B
:101080004FF6FE72DA601B4B00221A61194B0022E8
:101090005A61184B00229A61164802F09BFC0346E5
:1010A000002B01D000F03EFC00233B6100237B615C
:1010B00007F1100319460F4803F086FB0346002B87
:1010C00001D000F02FFC00233B6001237B60002354
:1010D000BB600023FB603B4600221946054802F036
:1010E00091FE0346002B01D000F01CFC00BF183716
:1010F000BD4680BDA0030020002C014080B58AB011
:1011000000AF07F1200300221A605A603B1D002245
:101110001A605A609A60DA601A615A619A61224BC9
:101120004FF080421A60204B4FF4FA625A601E4B17
:1011300000229A601C4B6422DA601B4B00221A6169
:10114000194B00229A61184802F052FB0346002B0B
:1011500001D000F0E7FB00233B6200237B6207F134
:1011600020031946104803F02FFB0346002B01D043
:1011700000F0D8FB60237B606423BB600023FB602E
:1011800000237B613B1D0C221946074802F0D6FE66
:101190000346002B01D000F0C5FB034800F0CCFC57
:1011A00000BF2837BD4680BDE803002080B58AB067
:1011B00000AF07F1200300221A605A603B1D002295
:1011C0001A605A609A60DA601A615A619A61224B19
:1011D000224A1A60204B4FF4FA625A601E4B0022DA
:1011E0009A601D4B6422DA601B4B00221A611A4B75
:1011F00000229A61184802F0FBFA0346002B01D046
:1012000000F090FB00233B6200237B6207F1200388
:101210001946114803F0D8FA0346002B01D000F01C
:1012200081FB60237B606423BB600023FB600023A1
:101230007B613B1D04221946074802F07FFE0346EE
:10124000002B01D000F06EFB034800F075FC00BFDE
:101250002837BD4680BD00BF300400200004004098
:1012600080B500AF114B124A1A60104B4FF4E132B7
:101270005A600E4B00229A600C4B0022DA600B4B36
:1012800000221A61094B0C225A61084B00229A6114
:10129000064B0022DA61054803F006FB0346002BEB
:1012A00001D000F03FFB00BF80BD00BF78040020EC
:1012B0000038014080B500AF114B124A1A60104B44
:1012C0004FF4E1325A600E4B00229A600C4B002220
:1012D000DA600B4B00221A61094B0C225A61084B51
:1012E00000229A61064B0022DA61054803F0DCFA1D
:1012F0000346002B01D000F015FB00BF80BD00BFEE
:10130000C00400200044004080B588B000AF07F161
:10131000100300221A605A609A60DA603F4B9B69A2
:101320003E4A43F0100393613C4B9B6903F010036A
:10133000FB60FB68394B9B69384A43F0200393619B
:10134000364B9B6903F02003BB60BB68334B9B6942
:10135000324A43F004039361304B9B6903F004036A
:101360007B607B682D4B9B692C4A43F0080393619B
:101370002A4B9B6903F008033B603B6800224FF453
:101380000051274801F0F4FC002241F630012548C5
:1013900001F0EEFC00224FF44041234801F0E8FC4C
:1013A0004FF400533B6101237B610023BB610223A7
:1013B000FB6107F110031946194801F055FB41F68E
:1013C00030033B6101237B610023BB610223FB618E
:1013D00007F110031946134801F046FB4FF4404350
:1013E0003B6101237B610023BB610223FB6107F1A9
:1013F000100319460C4801F037FB4FF400433B61E2
:1014000000237B610023BB6107F1100319460548E7
:1014100001F02AFB00BF2037BD4680BD001002400E
:101420000010014000080140000C014080B500AFF1
:1014300001224FF40061024801F09AFC00BF80BD18
:101440000008014080B500AF00224FF4006102485F
:1014500001F08EFC00BF80BD0008014080B483B065
:1014600000AF0346FB80084B1B6800225A6200BF96
:10147000054B1B685A6AFB889A42F9D300BF00BF2C
:101480000C37BD4680BC7047A00300200000000060
:1014900080B582B000AF78607B681B7F012B40F085
:1014A0008280454B1B78002B1AD10021786802F00E
:1014B00007FE0346414A13603F4B01221A707B68C6
:1014C0001B681A6A7B681B6822F00A021A627B6832
:1014D0001B681A6A7B681B6842F002021A6262E0AB
:1014E000354B1B78012B5ED10021786802F0E8FDB6
:1014F0000346334A13607B681B6800225A62304BF4
:101500001A682E4B1B689A4207D92D4B1A682B4B31
:101510001B68D31A2B4A13600FE0284B1A68284B1C
:101520001B689A4209D9264B1A68244B1B68D31AA8
:1015300003F57F43FF33234A1360224B1B68184691
:10154000FEF748FF1AA3D3E90023FEF7BDFF0246CA
:101550000B46104619464FF000024FF08043FFF74C
:10156000DDF802460B4610461946FFF7BFF9034661
:10157000154A1360104B00221A707B681B681A6AA8
:101580007B681B6822F00A021A627B681A687B6813
:101590001B68126A1A620D4B1B68DA680B4B1B68DA
:1015A00022F00202DA6000BF0837BD4680BD00BFEE
:1015B0009CC420B07268A13F34050020280500209B
:1015C0002C0500203005002038050020A003002055
:1015D00080B500AF01224FF480510B4801F0C8FBE9
:1015E0000A20FFF73BFF00224FF48051064801F02C
:1015F000BFFB064B1B68DA68044B1B6842F0020213
:10160000DA6000BF80BD00BF00080140A0030020D9
:1016100080B586B002AF78604E4B186864230093A3
:1016200000230022012104F047F8F860FB6803F072
:101630000103002BF0D0484B1B680A21184604F028
:101640009FFC01224FF40051444801F091FBFFF749
:10165000F9FEFFF7BDFF424B1B6842491846FFF7F2
:10166000E3F90346002B06D03A4B1B6804211846C9
:1016700004F0F0F86AE0FFF7E5FE4FF48073012212
:1016800039493A4803F060F9374B1B78613B162B18
:101690005CD801A252F823F0211700084D1700086A
:1016A0004D1700080B1700084D1700084D170008CC
:1016B0004D1700084D1700084D1700084D1700087A
:1016C0004D1700084D1700084D1700084D1700086A
:1016D0004D1700084D1700084D1700084D1700085A
:1016E000371700084D1700084D1700084D17000860
:1016F000F516000828211E48FFF723FA1C48FFF7BB
:10170000DEF9012003F078FF20E050211848FFF7B0
:1017100018FA1748FFF7E9F9012003F06DFF15E00B
:1017200050211348FFF70DFA1148FFF7F4F9012093
:1017300003F062FF0AE028210D48FFF702FA0C4887
:10174000FFF7A7F9012003F057FF00BF012003F0C6
:1017500053FF61E71C050020180500200010014020
:10176000380500200000A041210500207804002059
:101770002800002080B586B002AF7860134B18684F
:101780006423009301230122022103F095FFF860F6
:10179000FB6803F00203002BF0D00AE000224FF4B4
:1017A00000510B4801F0E4FA0A48FFF772F9FFF71D
:1017B0003DFE094B1B6809491846FFF753F90346DC
:1017C000002BEBD1012003F017FFD7E71C05002009
:1017D000001001402800002024050020000048429D
:1017E00080B586B002AF7860144B1868642300930C
:1017F00001230122042103F05FFFF860FB6803F07E
:101800000403002BF0D00CE0FFF7E2FE00224FF4BF
:1018100000510B4801F0ACFA0A48FFF73AF9FFF71C
:1018200011FE094B1B6809491846FFF7FDF80346EE
:10183000002BE9D1012003F0DFFED5E71C050020D5
:101840000010014028000020380500200000A041C1
:1018500080B582B000AF7860FFF7BAFE294B1B68F5
:1018600029491846FFF7E0F80346002B06D0274B1E
:101870001B680421184603F0EDFFEDE7244B1B68BD
:101880000A21184604F07CFBFFF7DCFD2148FFF736
:1018900000F94FF4807301221F49204803F054F8E7
:1018A0001D4B1B78742B12D1194B18680023002292
:1018B000002104F067FA154B1B680121184603F05C
:1018C000C9FF174B1B68184603F08AFE15E0124B40
:1018D0001B78662B11D1104B1B78002B0DD008E024
:1018E0004FF4807301220C490C4803F02DF8FFF7E8
:1018F0009DFD094B1B78662BF2D0012003F07CFE86
:10190000AAE700BF380500200000A0411C05002008
:101910001805002028000020200500207804002061
:101920001405002080B400AF00BFBD4680BC7047E6
:1019300080B584B000AF204B9B691F4A43F0010380
:1019400093611D4B9B6903F00103BB60BB681A4B9D
:10195000DB69194A43F08053D361174BDB6903F00D
:1019600080537B607B6800220F216FF0010000F044
:1019700092FF00220521012000F08DFF012000F0E0
:10198000A6FF00220521052000F085FF052000F0BC
:101990009EFF0A4B5B68FB60FB6823F0E063FB6023
:1019A000FB6843F00073FB60044AFB68536000BFB0
:1019B0001037BD4680BD00BF00100240000001404E
:1019C00080B588B000AF786007F1100300221A607C
:1019D0005A609A60DA607B681B68184A934229D182
:1019E000174B9B69164A43F480639361144B9B69C0
:1019F00003F48063FB60FB68114B9B69104A43F062
:101A0000080393610E4B9B6903F00803BB60BB683E
:101A100001233B6103237B6107F110031946094849
:101A200001F022F800220521122000F034FF1220DC
:101A300000F04DFF00BF2037BD4680BD00280140AB
:101A400000100240000C014080B588B000AF786003
:101A500007F1100300221A605A609A60DA607B680E
:101A60001B681A4A93422CD1194B9B69184A43F4BC
:101A700000639361164B9B6903F40063FB60FB6892
:101A8000134B9B69124A43F004039361104B9B690B
:101A900003F00403BB60BB684FF480733B61002319
:101AA0007B610023BB6107F110031946094800F070
:101AB000DBFF002205211B2000F0EDFE1B2000F0C3
:101AC00006FF00BF2037BD4680BD00BF002C01408F
:101AD000001002400008014080B485B000AF78607B
:101AE0007B681B68B3F1804F0CD1114BDB69104A46
:101AF00043F00103D3610E4BDB6903F00103FB608C
:101B0000FB6810E07B681B680A4A93420BD1084BC4
:101B1000DB69074A43F00203D361054BDB6903F03D
:101B20000203BB60BB6800BF1437BD4680BC704772
:101B3000001002400004004080B58AB000AF786019
:101B400007F1140300221A605A609A60DA607B6819
:101B50001B68B3F1804F2BD1264B9B69254A43F07C
:101B600008039361234B9B6903F008033B613B69C6
:101B70004FF400637B610223BB6102233B6207F1E8
:101B8000140319461C4800F06FFF1C4B5B687B6216
:101B90007B6A23F440737B627B6A43F0E0637B6281
:101BA0007B6A43F400737B62144A7B6A53601CE0D7
:101BB0007B681B68124A934217D10E4B9B690D4AF2
:101BC00043F0040393610B4B9B6903F00403FB6038
:101BD000FB6880237B610223BB6102233B6207F128
:101BE00014031946074800F03FFF00BF2837BD46E1
:101BF00080BD00BF00100240000C01400000014009
:101C0000000400400008014080B58AB000AF786051
:101C100007F1180300221A605A609A60DA607B6844
:101C20001B683F4A93423AD13E4B9B693D4A43F47D
:101C3000804393613B4B9B6903F480437B617B69E9
:101C4000384B9B69374A43F004039361354B9B69DA
:101C500003F004033B613B694FF40073BB61022353
:101C6000FB6103237B6207F1180319462E4800F03D
:101C7000FBFE4FF48063BB610023FB6100233B62EA
:101C800007F118031946284800F0EEFE002205214E
:101C9000252000F000FE252000F019FE3CE07B68C6
:101CA0001B68224A934237D11E4BDB691D4A43F41D
:101CB0000033D3611B4BDB6903F40033FB60FB682B
:101CC000184B9B69174A43F004039361154B9B69BA
:101CD00003F00403BB60BB680423BB610223FB6108
:101CE00003237B6207F1180319460F4800F0BCFE7E
:101CF0000823BB610023FB6100233B6207F118034B
:101D00001946094800F0B0FE00220521262000F007
:101D1000C2FD262000F0DBFD00BF2837BD4680BD98
:101D2000003801400010024000080140004400401B
:101D300080B400AF00BFBD4680BC704780B400AF28
:101D4000FEE780B400AFFEE780B400AFFEE780B4EA
:101D500000AFFEE780B400AF00BFBD4680BC704757
:101D600080B500AF00F0B0F805F036FA0346012B5D
:101D700001D005F0F9FD00BF80BD80B500AF01F0D6
:101D80000FF800BF80BD80B400AF00BFBD4680BC6F
:101D90007047000080B500AF024800F037FA00BF7E
:101DA00080BD00BF7003002080B500AF024801F085
:101DB00021FF00BF80BD00BFA003002080B500AFA1
:101DC000024802F053FE00BF80BD00BF780400202F
:101DD00080B500AF024802F049FE00BF80BD00BFE1
:101DE000C004002080B400AF00BFBD4680BC704777
:101DF0000C480D490D4A002302E0D458C450043366
:101E0000C4188C42F9D30A4A0A4C002301E013603B
:101E10000432A242FBD3FFF7E5FF05F0C1FFFEF756
:101E2000E5FF704700000020A0000020EC800008C3
:101E3000A000002058120020FEE7000080B500AF8F
:101E4000084B1B68074A43F010031360032000F09F
:101E500017FD0F2000F008F8FFF76AFD0023184671
:101E600080BD00BF0020024080B582B000AF786026
:101E7000124B1A68124B1B7819464FF47A73B3FB56
:101E8000F1F3B2FBF3F3184600F02FFD0346002BED
:101E900001D001230EE07B680F2B0AD8002279685D
:101EA0004FF0FF3000F0F7FC064A7B681360002318
:101EB00000E0012318460837BD4680BD2C000020F5
:101EC000340000203000002080B400AF054B1B78A8
:101ED0001A46054B1B681344034A136000BFBD46F6
:101EE00080BC7047340000203C05002080B400AF67
:101EF000024B1B681846BD4680BC70473C0500205D
:101F000080B586B000AF78600023FB7500233B618D
:101F10000023BB600023FB607B68002B01D1012301
:101F2000BEE07B689B68002B7B689B6A002B09D115
:101F30007B680022DA627B68002283F824207868BC
:101F4000FFF73EFD786800F085FB0346FB757B6874
:101F50009B6A03F01003002B40F09980FB7D002B5F
:101F600040F095807B689B6A23F4885323F002033A
:101F700043F002027B689A627B685A687B68DB697F
:101F80001A437B681B7B5B001343BA681343BB6037
:101F90007B689B68B3F5807F03D07B689B68012BCF
:101FA00002D14FF4807300E000233A6913433B6190
:101FB0007B681B7D012B19D17B681B7B002B09D112
:101FC0007B689B69013B5A033B69134343F40063FD
:101FD0003B610BE07B689B6A43F020027B689A625E
:101FE0007B68DB6A43F001027B68DA627B681B680E
:101FF0005B6823F469417B681B683A690A435A604D
:102000007B681B689A68284B13407A681268B96825
:102010000B4393607B689B68B3F5807F03D07B683C
:102020009B68012B04D17B681B69013B1B05FB608E
:102030007B681B68DB6A23F470017B681B68FA68A5
:102040000A43DA627B681B689A68184B1340BA68C7
:102050009A420BD17B680022DA627B689B6A23F08C
:10206000030343F001027B689A6218E07B689B6A75
:1020700023F0120343F010027B689A627B68DB6AEC
:1020800043F001027B68DA620123FB7507E07B689D
:102090009B6A43F010027B689A620123FB75FB7D0B
:1020A00018461837BD4680BDFDF7E1FFFE0E1FFF45
:1020B00080B584B000AF78600023FB737B6893F831
:1020C0002430012B01D1022398E07B68012283F8A0
:1020D0002420786800F064FA0346FB73FB7B002B36
:1020E00040F087807B689B6A23F4407323F00103F0
:1020F00043F480727B689A627B681B68414A934212
:1021000005D1414B5B6803F47023002B15D17B682C
:102110009B6A23F480127B689A627B681B685B6809
:1021200003F48063002B26D07B689B6A23F4405322
:1021300043F480527B689A621DE07B689B6A43F49B
:1021400080127B689A627B681B682F4A934204D096
:102150007B681B682B4A93420DD12B4B5B6803F4C1
:102160008063002B07D07B689B6A23F4405343F4C1
:1021700080527B689A627B689B6A03F48053002BD1
:1021800006D07B68DB6A23F006027B68DA6202E035
:102190007B680022DA627B68002283F824207B6857
:1021A0001B686FF002021A607B681B689B6803F46F
:1021B0006023B3F5602F13D17B681B68114A9342EB
:1021C00005D1114B5B6803F47023002B08D17B68A9
:1021D0001B689A687B681B6842F4A0029A600CE056
:1021E0007B681B689A687B681B6842F480129A605F
:1021F00003E07B68002283F82420FB7B184610371D
:10220000BD4680BD002801400024014080B584B057
:1022100000AF78607B681B681B68FB607B681B688D
:102220005B68BB60BB6803F02003002B3ED0FB68FB
:1022300003F00203002B39D07B689B6A03F0100384
:10224000002B05D17B689B6A43F400727B689A621D
:102250007B681B689B6803F46023B3F5602F1DD176
:102260007B681B7B002B19D17B681B685A687B68D5
:102270001B6822F020025A607B689B6A23F48072FC
:102280007B689A627B689B6A03F48053002B05D1BC
:102290007B689B6A43F001027B689A62786800F071
:1022A00074F87B681B686FF012021A60BB6803F059
:1022B0008003002B4DD0FB6803F00403002B48D0B3
:1022C0007B689B6A03F01003002B05D17B689B6A37
:1022D00043F400527B689A627B681B689B6803F436
:1022E000E043B3F5E04F12D07B681B685B6803F4F2
:1022F0008063002B25D17B681B689B6803F46023F7
:10230000B3F5602F1DD17B681B7B002B19D17B6837
:102310001B685A687B681B6822F080025A607B68E1
:102320009B6A23F480527B689A627B689B6A03F401
:102330008073002B05D17B689B6A43F001027B68A8
:102340009A62786800F0C7F97B681B686FF00C022E
:102350001A60BB6803F04003002B12D0FB6803F047
:102360000103002B0DD07B689B6A43F480327B68AD
:102370009A62786800F012F87B681B686FF00102BF
:102380001A6000BF1037BD4680BD80B483B000AF77
:10239000786000BF0C37BD4680BC704780B483B006
:1023A00000AF786000BF0C37BD4680BC70470000AE
:1023B00080B485B000AF786039600023FB730023E0
:1023C000BB607B6893F82430012B01D10223DCE051
:1023D0007B68012283F824203B685B68062B1CD8AD
:1023E0007B681B68596B3B685A6813469B00134413
:1023F000053B1F2202FA03F3DB4319403B681868D0
:102400003B685A6813469B001344053B00FA03F2ED
:102410007B681B680A435A633CE03B685B680C2B93
:102420001CD87B681B68196B3B685A6813469B0075
:102430001344233B1F2202FA03F3DB4319403B689A
:1024400018683B685A6813469B001344233B00FA04
:1024500003F27B681B680A431A631BE07B681B68F6
:10246000D96A3B685A6813469B001344413B1F22BC
:1024700002FA03F3DB4319403B6818683B685A686B
:1024800013469B001344413B00FA03F27B681B6830
:102490000A43DA623B681B68092B1CD97B681B68FE
:1024A000D9683B681A6813465B0013441E3B072239
:1024B00002FA03F3DB4319403B6898683B681A68EB
:1024C00013465B0013441E3B00FA03F27B681B6853
:1024D0000A43DA6019E07B681B6819693B681A686F
:1024E00013465B001344072202FA03F3DB4319404F
:1024F0003B6898683B681A6813465B00134400FA0F
:1025000003F27B681B680A431A613B681B68102B47
:1025100003D03B681B68112B32D17B681B681D4AB6
:10252000934225D17B681B689B6803F40003002B52
:1025300026D17B681B689A687B681B6842F400029E
:102540009A603B681B68102B1AD1134B1B68134A07
:10255000A2FB03239A0C13469B0013445B00BB6051
:1025600002E0BB68013BBB60BB68002BF9D107E010
:102570007B689B6A43F020027B689A620123FB73AD
:102580007B68002283F82420FB7B18461437BD4665
:1025900080BC7047002401402C00002083DE1B43D8
:1025A00080B584B000AF78600023FB600023BB607F
:1025B0007B681B689B6803F00103012B40D07B689C
:1025C0001B689A687B681B6842F001029A601F4B87
:1025D0001B681F4AA2FB03239B0CBB6002E0BB6885
:1025E000013BBB60BB68002BF9D1FFF77FFCF860B3
:1025F0001FE0FFF77BFC0246FB68D31A022B18D9B9
:102600007B681B689B6803F00103012B11D07B687A
:102610009B6A43F010027B689A627B68DB6A43F036
:1026200001027B68DA627B68002283F824200123A0
:1026300007E07B681B689B6803F00103012BD8D17E
:10264000002318461037BD4680BD00BF2C00002077
:1026500083DE1B4380B584B000AF78600023FB604D
:102660007B681B689B6803F00103012B2ED17B68FC
:102670001B689A687B681B6822F001029A60FFF76A
:1026800035FCF8601BE0FFF731FC0246FB68D31A0B
:10269000022B14D97B681B689B6803F00103012B94
:1026A0000DD17B689B6A43F010027B689A627B685D
:1026B000DB6A43F001027B68DA62012307E07B6892
:1026C0001B689B6803F00103012BDCD00023184634
:1026D0001037BD4680BD80B483B000AF786000BFC6
:1026E0000C37BD4680BC704780B485B000AF7860C1
:1026F0007B6803F00703FB600C4BDB68BB60BA68C8
:102700004FF6FF031340BB60FB681A02BB6813431C
:1027100043F0BF6343F40033BB60044ABB68D3603B
:1027200000BF1437BD4680BC704700BF00ED00E01D
:1027300080B400AF044BDB681B0A03F007031846A4
:10274000BD4680BC704700BF00ED00E080B483B0A0
:1027500000AF0346FB7197F90730002B0BDBFB79C9
:1027600003F01F02064997F907305B09012000FAC0
:1027700002F241F8232000BF0C37BD4680BC7047F1
:1027800000E100E080B483B000AF03463960FB7124
:1027900097F90730002B0ADB3B68DAB20C4997F94E
:1027A00007301201D2B20B4483F800230AE03B68E1
:1027B000DAB20849FB7903F00F03043B1201D2B2ED
:1027C0000B441A7600BF0C37BD4680BC704700BF73
:1027D00000E100E000ED00E080B489B000AFF860F7
:1027E000B9607A60FB6803F00703FB61FB69C3F122
:1027F0000703042B28BF0423BB61FB690433062BAA
:1028000002D9FB69033B00E000237B614FF0FF32FC
:10281000BB6902FA03F3DA43BB681A407B699A404A
:102820004FF0FF317B6901FA03F3D9437B680B401A
:10283000134318462437BD4680BC704780B582B02C
:1028400000AF78607B68013BB3F1807F01D3012347
:102850000FE00A4A7B68013B53600F214FF0FF30C5
:10286000FFF790FF054B00229A60044B07221A6085
:10287000002318460837BD4680BD00BF10E000E0C9
:1028800080B582B000AF78607868FFF72DFF00BF99
:102890000837BD4680BD80B586B000AF0346B9603D
:1028A0007A60FB7300237B61FFF742FF78617A68EF
:1028B000B9687869FFF790FF024697F90F30114623
:1028C0001846FFF75FFF00BF1837BD4680BD80B5D3
:1028D00082B000AF0346FB7197F907301846FFF747
:1028E00035FF00BF0837BD4680BD80B582B000AF60
:1028F00078607868FFF7A2FF034618460837BD46A0
:1029000080BD80B485B000AF78600023FB737B6826
:1029100093F82130DBB2022B08D07B6804229A6343
:102920007B68002283F82020012320E07B681B685D
:102930001A687B681B6822F00E021A607B681B68AD
:102940001A687B681B6822F001021A607B681A6CA7
:102950007B68DB6B012101FA02F25A607B6801227D
:1029600083F821207B68002283F82020FB7B184617
:102970001437BD4680BC704780B584B000AF786026
:102980000023FB737B6893F82130DBB2022B05D068
:102990007B6804229A630123FB7351E07B681B6808
:1029A0001A687B681B6822F00E021A607B681B683D
:1029B0001A687B681B6822F001021A607B681B683A
:1029C000224A934229D07B681B68214A934222D035
:1029D0007B681B681F4A93421AD07B681B681E4A9B
:1029E000934212D07B681B681C4A93420AD07B68D2
:1029F0001B681B4A934202D14FF480130EE04FF044
:102A000080730BE04FF4803308E04FF4805305E00F
:102A10004FF4807302E0102300E00123114A536059
:102A20007B68012283F821207B68002283F8202024
:102A30007B685B6B002B03D07B685B6B7868984787
:102A4000FB7B18461037BD4680BD00BF0800024022
:102A50001C00024030000240440002405800024086
:102A60006C0002400000024080B48BB000AF786080
:102A7000396000237B6200233B6269E101227B6AAB
:102A800002FA03F3FB613B681B68FA691340BB6100
:102A9000BA69FB699A4240F058813B685B689A4A80
:102AA00093425ED0984A934275D8984A934258D040
:102AB000964A93426FD8964A934252D0944A934290
:102AC00069D8944A93424CD0924A934263D8924A2E
:102AD000934246D0904A93425DD8122B2AD8122BAB
:102AE00059D801A252F823F0632B00083D2B0008AF
:102AF0004F2B0008912B0008972B0008972B0008FC
:102B0000972B0008972B0008972B0008972B00089D
:102B1000972B0008972B0008972B0008972B00088D
:102B2000972B0008972B0008972B0008452B0008CF
:102B3000592B0008794A934213D02CE03B68DB689C
:102B40003B6229E03B68DB6804333B6224E03B687E
:102B5000DB6808333B621FE03B68DB680C333B6299
:102B60001AE03B689B68002B02D104233B6213E010
:102B70003B689B68012B05D108233B627B68FA699F
:102B80001A6109E008233B627B68FA695A6103E035
:102B900000233B6200E000BFBB69FF2B01D87B68CC
:102BA00001E07B6804337B61BB69FF2B02D87B6A41
:102BB0009B0002E07B6A083B9B003B617B691A68D3
:102BC0000F213B6901FA03F3DB431A40396A3B6981
:102BD00001FA03F31A437B691A603B685B6803F0F0
:102BE0008053002B00F0B1804D4B9B694C4A43F061
:102BF000010393614A4B9B6903F00103BB60BB680F
:102C0000484A7B6A9B08023352F82330FB607B6A98
:102C100003F003039B000F2202FA03F3DB43FA687D
:102C20001340FB607B68404A934213D07B683F4A65
:102C300093420DD07B683E4A934207D07B683D4A61
:102C4000934201D1032306E0042304E0022302E0BF
:102C5000012300E000237A6A02F00302920093400D
:102C6000FA681343FB602F497B6A9B080233FA68BA
:102C700041F823203B685B6803F48013002B06D0E7
:102C80002D4B9A682C49BB6913438B6006E02A4B95
:102C90009A68BB69DB43284913408B603B685B68DB
:102CA00003F40013002B06D0234BDA682249BB69DA
:102CB0001343CB6006E0204BDA68BB69DB431E4957
:102CC0001340CB603B685B6803F40033002B06D0F5
:102CD000194B5A681849BB6913434B6006E0164B01
:102CE0005A68BB69DB43144913404B603B685B681F
:102CF00003F48033002B21D00F4B1A680E49BB69B7
:102D000013430B6021E000BF0000321000003110BF
:102D1000000022100000211000001210000011100D
:102D2000001002400000014000080140000C01407A
:102D30000010014000140140000401400B4B1A68D0
:102D4000BB69DB43094913400B607B6A01337B623B
:102D50003B681A687B6A22FA03F3002B7FF48EAE7D
:102D600000BF00BF2C37BD4680BC70470004014047
:102D700080B483B000AF78600B467B8013467B70D5
:102D80007B78002B03D07A887B681A6103E07B880C
:102D90001A047B681A6100BF0C37BD4680BC7047BF
:102DA00080B500AF064B5B6903F48033002B05D080
:102DB00000F008F8024B4FF480325A6100BF80BD2A
:102DC0000004014080B400AF00BFBD4680BC704726
:102DD00080B586B000AF78607B68002B01D10123FD
:102DE00072E27B681B6803F00103002B00F0878010
:102DF000924B5B6803F00C03042B0CD08F4B5B6889
:102E000003F00C03082B12D18C4B5B6803F4803366
:102E1000B3F5803F0BD1894B1B6803F40033002BC3
:102E20006CD07B685B68002B68D101234CE27B6827
:102E30005B68B3F5803F06D1804B1B687F4A43F443
:102E4000803313602EE07B685B68002B0CD17B4BDA
:102E50001B687A4A23F480331360784B1B68774AE7
:102E600023F4802313601DE07B685B68B3F5A02F1B
:102E70000CD1724B1B68714A43F4802313606F4B73
:102E80001B686E4A43F4803313600BE06B4B1B6886
:102E90006A4A23F480331360684B1B68674A23F443
:102EA000802313607B685B68002B13D0FFF71EF84C
:102EB000386108E0FFF71AF802463B69D31A642B21
:102EC00001D9032300E25D4B1B6803F40033002BA0
:102ED000F0D014E0FFF70AF8386108E0FFF706F8D1
:102EE00002463B69D31A642B01D90323ECE1534B0F
:102EF0001B6803F40033002BF0D100E000BF7B68B7
:102F00001B6803F00203002B63D04C4B5B6803F09B
:102F10000C03002B0BD0494B5B6803F00C03082B10
:102F20001CD1464B5B6803F48033002B16D1434B16
:102F30001B6803F00203002B05D07B681B69012B83
:102F400001D00123C0E13D4B1B6823F0F8027B68F0
:102F50005B69DB00394913430B603AE07B681B690E
:102F6000002B20D0364B01221A60FEF7BFFF3861DC
:102F700008E0FEF7BBFF02463B69D31A022B01D9DA
:102F80000323A1E12D4B1B6803F00203002BF0D0BB
:102F90002A4B1B6823F0F8027B685B69DB0027493A
:102FA00013430B6015E0264B00221A60FEF79EFFCC
:102FB000386108E0FEF79AFF02463B69D31A022BFC
:102FC00001D9032380E11D4B1B6803F00203002B92
:102FD000F0D17B681B6803F00803002B3AD07B68B4
:102FE0009B69002B19D0174B01221A60FEF77EFF58
:102FF000386108E0FEF77AFF02463B69D31A022BDC
:1030000001D9032360E10D4B5B6A03F00203002B3F
:10301000F0D0012000F0CEFA1CE00A4B00221A602A
:10302000FEF764FF38610FE0FEF760FF02463B6980
:10303000D31A022B08D9032346E100BF0010024037
:103040000000424280044242924B5B6A03F002035A
:10305000002BE9D17B681B6803F00403002B00F010
:10306000A6800023FB758B4BDB6903F08053002B9C
:103070000DD1884BDB69874A43F08053D361854B80
:10308000DB6903F08053BB60BB680123FB75824B97
:103090001B6803F48073002B18D17F4B1B687E4A9A
:1030A00043F480731360FEF721FF386108E0FEF7F8
:1030B0001DFF02463B69D31A642B01D9032303E1A8
:1030C000754B1B6803F48073002BF0D07B68DB68C2
:1030D000012B06D16F4B1B6A6E4A43F0010313624A
:1030E0002DE07B68DB68002B0CD16A4B1B6A694AB8
:1030F00023F001031362674B1B6A664A23F0040343
:1031000013621CE07B68DB68052B0CD1614B1B6AEA
:10311000604A43F0040313625E4B1B6A5D4A43F04E
:10312000010313620BE05B4B1B6A5A4A23F0010355
:103130001362584B1B6A574A23F0040313627B68DF
:10314000DB68002B15D0FEF7D1FE38610AE0FEF7F0
:10315000CDFE02463B69D31A41F28832934201D92F
:103160000323B1E04B4B1B6A03F00203002BEED0AC
:1031700014E0FEF7BBFE38610AE0FEF7B7FE024638
:103180003B69D31A41F28832934201D903239BE071
:10319000404B1B6A03F00203002BEED1FB7D012B99
:1031A00005D13C4BDB693B4A23F08053D3617B68FC
:1031B000DB69002B00F08780364B5B6803F00C0363
:1031C000082B61D07B68DB69022B46D1334B002290
:1031D0001A60FEF78BFE386108E0FEF787FE0246B4
:1031E0003B69D31A022B01D903236DE0294B1B68DD
:1031F00003F00073002BF0D17B681B6AB3F5803FAE
:1032000008D1244B5B6823F400327B689B6821491A
:1032100013434B601F4B5B6823F474127B68196A7D
:103220007B685B6A0B431B4913434B601B4B0122BA
:103230001A60FEF75BFE386108E0FEF757FE0246B3
:103240003B69D31A022B01D903233DE0114B1B68C4
:1032500003F00073002BF0D035E0104B00221A6011
:10326000FEF744FE386108E0FEF740FE02463B6987
:10327000D31A022B01D9032326E0064B1B6803F067
:103280000073002BF0D11EE07B68DB69012B07D1B6
:10329000012319E00010024000700040600042422B
:1032A0000B4B5B68FB60FB6803F480327B681B6A36
:1032B0009A4206D1FB6803F470127B685B6A9A42FB
:1032C00001D0012300E0002318461837BD4680BD19
:1032D0000010024080B584B000AF786039607B6830
:1032E000002B01D10123D0E06A4B1B6803F00703D8
:1032F0003A689A4210D9674B1B6823F00702654968
:103300003B6813430B60634B1B6803F007033A6889
:103310009A4201D00123B8E07B681B6803F00203E6
:10332000002B20D07B681B6803F00403002B05D022
:10333000594B5B68584A43F4E06353607B681B68F1
:1033400003F00803002B05D0534B5B68524A43F44B
:1033500060535360504B5B6823F0F0027B689B68BE
:103360004D4913434B607B681B6803F00103002B3E
:1033700040D07B685B68012B07D1474B1B6803F487
:103380000033002B15D101237FE07B685B68022BA3
:1033900007D1414B1B6803F00073002B09D10123B7
:1033A00073E03D4B1B6803F00203002B01D10123A6
:1033B0006BE0394B5B6823F003027B685B6836493E
:1033C00013434B60FEF792FDF8600AE0FEF78EFDB6
:1033D0000246FB68D31A41F28832934201D9032393
:1033E00053E02D4B5B6803F00C027B685B689B002D
:1033F0009A42EBD1274B1B6803F007033A689A42C5
:1034000010D2244B1B6823F0070222493B68134368
:103410000B60204B1B6803F007033A689A4201D007
:10342000012332E07B681B6803F00403002B08D003
:10343000194B5B6823F4E0627B68DB681649134331
:103440004B607B681B6803F00803002B09D0124B0C
:103450005B6823F460527B681B69DB000E491343F1
:103460004B6000F021F802460B4B5B681B0903F030
:103470000F030A49CB5C22FA03F3094A1360094B94
:103480001B681846FEF7F0FC002318461037BD46AF
:1034900080BD00BF0020024000100240588000089C
:1034A0002C0000203000002080B487B000AF002343
:1034B000FB600023BB6000237B6100237B60002353
:1034C0003B611E4B5B68FB60FB6803F00C03042B45
:1034D00002D0082B03D027E0194B3B6127E0FB68A3
:1034E0009B0C03F00F03174AD35C7B60FB6803F46B
:1034F0008033002B10D0114B5B685B0C03F0010391
:10350000114AD35CBB607B680D4A03FB02F2BB68C7
:10351000B2FBF3F37B6104E07B680C4A02FB03F32C
:103520007B617B693B6102E0054B3B6100BF3B690E
:1035300018461C37BD4680BC704700BF00100240D3
:1035400000127A00708000088080000800093D00A9
:1035500080B400AF024B1B681846BD4680BC704764
:103560002C00002080B500AFFFF7F2FF0246054BAC
:103570005B681B0A03F007030349CB5C22FA03F3E1
:10358000184680BD001002406880000880B500AF7A
:10359000FFF7DEFF0246054B5B68DB0A03F007031B
:1035A0000349CB5C22FA03F3184680BD00100240A9
:1035B0006880000880B485B000AF78600A4B1B6853
:1035C0000A4AA2FB03235B0A7A6802FB03F3FB604F
:1035D00000BFFB685A1EFA60002BF9D100BF00BF84
:1035E0001437BD4680BC70472C000020D34D6210BC
:1035F00080B586B000AF786000233B610023FB609C
:103600007B681B6803F00103002B7DD00023FB7552
:103610004F4BDB6903F08053002B0DD14C4BDB6922
:103620004B4A43F08053D361494BDB6903F080532D
:10363000BB60BB680123FB75464B1B6803F48073BA
:10364000002B18D1434B1B68424A43F4807313602C
:10365000FEF74CFC386108E0FEF748FC02463B6987
:10366000D31A642B01D903236DE03A4B1B6803F492
:103670008073002BF0D0364B1B6A03F44073FB6061
:10368000FB68002B2ED07B685B6803F44073FA68FC
:103690009A4227D02E4B1B6A23F44073FB602E4BBB
:1036A00001221A602C4B00221A60294AFB6813621F
:1036B000FB6803F00103002B14D0FEF717FC386100
:1036C0000AE0FEF713FC02463B69D31A41F2883246
:1036D000934201D9032336E01D4B1B6A03F002031A
:1036E000002BEED01A4B1B6A23F440727B685B6898
:1036F000174913430B62FB7D012B05D1144BDB698A
:10370000134A23F08053D3617B681B6803F00203E4
:10371000002B08D00E4B5B6823F440427B689B680B
:103720000B4913434B607B681B6803F01003002BAD
:1037300008D0074B5B6823F480027B68DB68044990
:1037400013434B60002318461837BD4680BD00BFA9
:1037500000100240007000404004424280B485B036
:1037600000AF78607B6893F83D30DBB2012B01D06D
:10377000012332E07B68022283F83D207B681B68CE
:10378000184A93420ED07B681B68B3F1804F09D072
:103790007B681B68144A934204D07B681B68134AF9
:1037A000934211D17B681B689B6803F00703FB60A1
:1037B000FB68062B10D07B681B681A687B681B6847
:1037C00042F001021A6007E07B681B681A687B6898
:1037D0001B6842F001021A60002318461437BD46E8
:1037E00080BC7047002C01400004004000080040ED
:1037F00080B582B000AF78607B68002B01D10123D7
:1038000041E07B6893F83D30DBB2002B06D17B684A
:10381000002283F83C207868FEF75EF97B6802227C
:1038200083F83D207B681A687B680433194610468C
:1038300000F0AEFC7B68012283F846207B68012201
:1038400083F83E207B68012283F83F207B680122B9
:1038500083F840207B68012283F841207B680122A5
:1038600083F842207B68012283F843207B68012291
:1038700083F844207B68012283F845207B6801227D
:1038800083F83D20002318460837BD4680BD000060
:1038900080B584B000AF786039603B68002B09D1F7
:1038A0007B6893F83E30DBB2012B14BF0123002369
:1038B000DBB222E03B68042B09D17B6893F83F30F0
:1038C000DBB2012B14BF01230023DBB215E03B6800
:1038D000082B09D17B6893F84030DBB2012B14BF71
:1038E00001230023DBB208E07B6893F84130DBB2B0
:1038F000012B14BF01230023DBB2002B01D00123D5
:103900005EE03B68002B04D17B68022283F83E20F6
:1039100013E03B68042B04D17B68022283F83F202C
:103920000BE03B68082B04D17B68022283F840201F
:1039300003E07B68022283F841207B681B68012238
:103940003968184600F01BFF7B681B681E4A9342CB
:1039500007D17B681B685A6C7B681B6842F4004285
:103960005A647B681B68184A93420ED07B681B68B8
:10397000B3F1804F09D07B681B68144A934204D08E
:103980007B681B68124A934211D17B681B689B6855
:1039900003F00703FB60FB68062B10D07B681B68F5
:1039A0001A687B681B6842F001021A6007E07B68B6
:1039B0001B681A687B681B6842F001021A600023CA
:1039C00018461037BD4680BD002C01400004004061
:1039D0000008004080B582B000AF78607B68002BA3
:1039E00001D1012341E07B6893F83D30DBB2002B2D
:1039F00006D17B68002283F83C207868FEF724F823
:103A00007B68022283F83D207B681A687B68043358
:103A10001946104600F0BCFB7B68012283F8462063
:103A20007B68012283F83E207B68012283F83F20D7
:103A30007B68012283F840207B68012283F84120C3
:103A40007B68012283F842207B68012283F84320AF
:103A50007B68012283F844207B68012283F845209B
:103A60007B68012283F83D20002318460837BD46B5
:103A700080BD000080B584B000AF786039603B68DD
:103A8000002B04D17B6893F83E30DBB213E03B6837
:103A9000042B04D17B6893F83F30DBB20BE03B682A
:103AA000082B04D17B6893F84030DBB203E07B68DD
:103AB00093F84130DBB2FB733B68002B04D17B6889
:103AC00093F84230DBB213E03B68042B04D17B68EF
:103AD00093F84330DBB20BE03B68082B04D17B68E2
:103AE00093F84430DBB203E07B6893F84530DBB2F7
:103AF000BB73FB7B012B02D1BB7B012B01D00123CC
:103B00006DE03B68002B04D17B68022283F83E20E5
:103B100013E03B68042B04D17B68022283F83F202A
:103B20000BE03B68082B04D17B68022283F840201D
:103B300003E07B68022283F841203B68002B04D11C
:103B40007B68022283F8422013E03B68042B04D1F7
:103B50007B68022283F843200BE03B68082B04D1EA
:103B60007B68022283F8442003E07B68022283F80A
:103B700045207B681B6801223968184600F0FFFD6C
:103B80007B681B68184A93420ED07B681B68B3F1B0
:103B9000804F09D07B681B68144A934204D07B682D
:103BA0001B68134A934211D17B681B689B6803F022
:103BB0000703BB60BB68062B10D07B681B681A68C4
:103BC0007B681B6842F001021A6007E07B681B6893
:103BD0001A687B681B6842F001021A6000231846CD
:103BE0001037BD4680BD00BF002C014000040040DE
:103BF0000008004080B582B000AF78607B681B6829
:103C00001B6903F00203022B22D17B681B68DB686F
:103C100003F00203022B1BD17B681B686FF00202CA
:103C20001A617B6801221A777B681B689B6903F025
:103C30000303002B03D07868FDF72AFC05E07868C1
:103C400000F08BFA786800F091FA7B6800221A770E
:103C50007B681B681B6903F00403042B22D17B687B
:103C60001B68DB6803F00403042B1BD17B681B6813
:103C70006FF004021A617B6802221A777B681B6866
:103C80009B6903F44073002B03D07868FDF700FCB8
:103C900005E0786800F061FA786800F067FA7B6800
:103CA00000221A777B681B681B6903F00803082B46
:103CB00022D17B681B68DB6803F00803082B1BD14B
:103CC0007B681B686FF008021A617B6804221A7710
:103CD0007B681B68DB6903F00303002B03D0786863
:103CE000FDF7D6FB05E0786800F037FA786800F059
:103CF0003DFA7B6800221A777B681B681B6903F01A
:103D00001003102B22D17B681B68DB6803F01003C3
:103D1000102B1BD17B681B686FF010021A617B6847
:103D200008221A777B681B68DB6903F44073002B59
:103D300003D07868FDF7ACFB05E0786800F00DFA79
:103D4000786800F013FA7B6800221A777B681B689A
:103D50001B6903F00103012B0ED17B681B68DB6834
:103D600003F00103012B07D17B681B686FF0010290
:103D70001A61786800F0E8F97B681B681B6903F03A
:103D80008003802B0ED17B681B68DB6803F0800307
:103D9000802B07D17B681B686FF080021A617868FE
:103DA00000F079FD7B681B681B6903F04003402B22
:103DB0000ED17B681B68DB6803F04003402B07D102
:103DC0007B681B686FF040021A61786800F0D7F9D1
:103DD0007B681B681B6903F02003202B0ED17B68D6
:103DE0001B68DB6803F02003202B07D17B681B686E
:103DF0006FF020021A61786800F044FD00BF0837B8
:103E0000BD4680BD80B586B000AFF860B9607A600D
:103E10000023FB75FB6893F83C30012B01D1022392
:103E200088E0FB68012283F83C207B68002B1BD1D3
:103E3000FB681868BB681968BB685A68BB68DB68B0
:103E400000F090FBFB681B689A69FB681B6822F016
:103E50000C029A61FB681B689969BB689A68FB68E9
:103E60001B680A439A6160E07B68042B1CD1FB68E5
:103E70001868BB681968BB685A68BB68DB6800F0E3
:103E8000CBFBFB681B689A69FB681B6822F44062E5
:103E90009A61FB681B689969BB689B681A02FB689A
:103EA0001B680A439A6140E07B68082B1BD1FB68C2
:103EB0001868BB681968BB685A68BB68DB6800F0A3
:103EC000E7FBFB681B68DA69FB681B6822F00C02E1
:103ED000DA61FB681B68D969BB689A68FB681B6874
:103EE0000A43DA6121E07B680C2B1CD1FB6818685F
:103EF000BB681968BB685A68BB68DB6800F003FCE4
:103F0000FB681B68DA69FB681B6822F44062DA61AF
:103F1000FB681B68D969BB689B681A02FB681B6851
:103F20000A43DA6101E00123FB75FB68002283F894
:103F30003C20FB7D18461837BD4680BD80B586B055
:103F400000AFF860B9607A600023FB75FB6893F8F6
:103F50003C30012B01D10223AEE0FB68012283F843
:103F60003C207B680C2B00F29F8001A252F823F0CA
:103F7000A53F0008A9400008A9400008A940000882
:103F8000E53F0008A9400008A9400008A940000832
:103F900027400008A9400008A9400008A9400008DF
:103FA00067400008FB681B68B968184600F052F9C2
:103FB000FB681B689A69FB681B6842F008029A61FB
:103FC000FB681B689A69FB681B6822F004029A610F
:103FD000FB681B689969BB681A69FB681B680A4320
:103FE0009A6164E0FB681B68B968184600F098F9AC
:103FF000FB681B689A69FB681B6842F400629A615F
:10400000FB681B689A69FB681B6822F480629A61EE
:10401000FB681B689969BB681B691A02FB681B680F
:104020000A439A6143E0FB681B68B968184600F0D0
:10403000E1F9FB681B68DA69FB681B6842F008025B
:10404000DA61FB681B68DA69FB681B6822F004020E
:10405000DA61FB681B68D969BB681A69FB681B6871
:104060000A43DA6123E0FB681B68B968184600F070
:104070002BFAFB681B68DA69FB681B6842F4006274
:10408000DA61FB681B68DA69FB681B6822F48062EE
:10409000DA61FB681B68D969BB681B691A02FB6897
:1040A0001B680A43DA6102E00123FB7500BFFB686D
:1040B000002283F83C20FB7D18461837BD4680BDA2
:1040C00080B485B000AF786039600023FB603B6846
:1040D0000C2B31D801A252F823F000BF1141000887
:1040E0003941000839410008394100081B410008E6
:1040F00039410008394100083941000825410008CC
:104100003941000839410008394100082F410008B1
:104110007B681B685B6BFB600FE07B681B689B6BBD
:10412000FB600AE07B681B68DB6BFB6005E07B687B
:104130001B681B6CFB6000E000BFFB68184614376F
:10414000BD4680BC704700BF80B483B000AF7860CC
:1041500000BF0C37BD4680BC704780B483B000AF51
:10416000786000BF0C37BD4680BC704780B483B018
:1041700000AF786000BF0C37BD4680BC704780B48C
:1041800083B000AF786000BF0C37BD4680BC70477D
:1041900080B485B000AF786039607B681B68FB60D5
:1041A0007B68294A93420BD07B68B3F1804F07D0DC
:1041B0007B68264A934203D07B68254A934208D104
:1041C000FB6823F07003FB603B685B68FA6813438D
:1041D000FB607B681C4A93420BD07B68B3F1804F35
:1041E00007D07B68194A934203D07B68184A9342F0
:1041F00008D1FB6823F44073FB603B68DB68FA6816
:104200001343FB60FB6823F080023B685B69134348
:10421000FB607B68FA681A603B689A687B68DA62C0
:104220003B681A687B689A627B68074A934203D1AD
:104230003B681A697B681A637B6801225A6100BF78
:104240001437BD4680BC7047002C0140000400407C
:104250000008004080B487B000AF786039607B68A8
:104260001B6A7B617B681B6A23F001027B681A6210
:104270007B685B683B617B689B69FB60FB6823F044
:104280007003FB60FB6823F00303FB603B681B6863
:10429000FA681343FB607B6923F002037B613B6890
:1042A0009B687A6913437B617B681C4A93420CD1FB
:1042B0007B6923F008037B613B68DB687A69134301
:1042C0007B617B6923F004037B617B68134A934223
:1042D00011D13B6923F480733B613B6923F4007384
:1042E0003B613B685B693A6913433B613B689B698F
:1042F0003A6913433B617B683A695A607B68FA68A4
:104300009A613B685A687B685A637B687A691A626B
:1043100000BF1C37BD4680BC704700BF002C014069
:1043200080B487B000AF786039607B681B6A7B61BE
:104330007B681B6A23F010027B681A627B685B68EB
:104340003B617B689B69FB60FB6823F4E043FB6097
:10435000FB6823F44073FB603B681B681B02FA6830
:104360001343FB607B6923F020037B613B689B6800
:104370001B017A6913437B617B681D4A93420DD10F
:104380007B6923F080037B613B68DB681B017A69F2
:1043900013437B617B6923F040037B617B68144A94
:1043A000934213D13B6923F480633B613B6923F45F
:1043B00000633B613B685B699B003A6913433B6167
:1043C0003B689B699B003A6913433B617B683A6990
:1043D0005A607B68FA689A613B685A687B689A639E
:1043E0007B687A691A6200BF1C37BD4680BC704783
:1043F000002C014080B487B000AF786039607B68E2
:104400001B6A7B617B681B6A23F480727B681A627B
:104410007B685B683B617B68DB69FB60FB6823F062
:104420007003FB60FB6823F00303FB603B681B68C1
:10443000FA681343FB607B6923F400737B613B687C
:104440009B681B027A6913437B617B681D4A934218
:104450000DD17B6923F400637B613B68DB681B0241
:104460007A6913437B617B6923F480637B617B689A
:10447000144A934213D13B6923F480533B613B6957
:1044800023F400533B613B685B691B013A691343AA
:104490003B613B689B691B013A6913433B617B6845
:1044A0003A695A607B68FA68DA613B685A687B68E7
:1044B000DA637B687A691A6200BF1C37BD4680BC2C
:1044C000704700BF002C014080B487B000AF786017
:1044D00039607B681B6A3B617B681B6A23F48052EE
:1044E0007B681A627B685B687B617B68DB69FB6069
:1044F000FB6823F4E043FB60FB6823F44073FB603C
:104500003B681B681B02FA681343FB603B6923F49A
:1045100000533B613B689B681B033A6913433B6153
:104520007B680F4A934209D17B6923F480437B6106
:104530003B685B699B017A6913437B617B687A699D
:104540005A607B68FA68DA613B685A687B681A646B
:104550007B683A691A6200BF1C37BD4680BC704751
:10456000002C014080B487B000AFF860B9607A6079
:104570003B60FB681B6A3B61FB681B6A23F001021E
:10458000FB681A62FB689B697B61FB681F4A934268
:104590000BD0FB68B3F1804F07D0FB681C4A9342F5
:1045A00003D0FB681B4A934201D1012300E00023A2
:1045B000002B08D07B6923F003037B617A697B6859
:1045C00013437B6103E07B6943F001037B617B69FB
:1045D00023F0F0037B613B681B01DBB27A69134374
:1045E0007B613B6923F00A033B61BB6803F00A036C
:1045F0003A6913433B61FB687A699A61FB683A69DF
:104600001A6200BF1C37BD4680BC7047002C0140B9
:10461000000400400008004080B487B000AFF8609C
:10462000B9607A603B60FB681B6A7B61FB681B6A50
:1046300023F01002FB681A62FB689B693B613B69CF
:1046400023F440733B617B681B023A6913433B616F
:104650003B6923F470433B613B681B039BB23A699F
:1046600013433B617B6923F0A0037B61BB681B01A3
:1046700003F0A0037A6913437B61FB683A699A618E
:10468000FB687A691A6200BF1C37BD4680BC704760
:1046900080B487B000AFF860B9607A603B60FB68B7
:1046A0001B6A7B61FB681B6A23F48072FB681A62D9
:1046B000FB68DB693B613B6923F003033B613A69BB
:1046C0007B6813433B613B6923F0F0033B613B682C
:1046D0001B01DBB23A6913433B617B6923F400732E
:1046E0007B61BB681B0203F400737A6913437B612F
:1046F000FB683A69DA61FB687A691A6200BF1C37A5
:10470000BD4680BC704780B487B000AFF860B96028
:104710007A603B60FB681B6A7B61FB681B6A23F461
:104720008052FB681A62FB68DB693B613B6923F4DA
:1047300040733B617B681B023A6913433B613B69F1
:1047400023F470433B613B681B039BB23A691343FC
:104750003B617B6923F400537B61BB681B0303F45B
:1047600000537A6913437B61FB683A69DA61FB683D
:104770007A691A6200BF1C37BD4680BC704780B49E
:1047800087B000AFF860B9607A60BB6803F01F03C0
:10479000012202FA03F37B61FB681A6A7B69DB433F
:1047A0001A40FB681A62FB681A6ABB6803F01F03B1
:1047B000796801FA03F31A43FB681A6200BF1C37D9
:1047C000BD4680BC7047000080B485B000AF786003
:1047D00039607B6893F83C30012B01D1022346E01D
:1047E0007B68012283F83C207B68022283F83D200D
:1047F0007B681B685B68FB607B681B689B68BB60B1
:10480000FB6823F07003FB603B681B68FA68134386
:10481000FB607B681B68FA685A607B681B68164AF5
:1048200093420ED07B681B68B3F1804F09D07B6840
:104830001B68124A934204D07B681B68104A93425B
:104840000CD1BB6823F08003BB603B685B68BA682F
:104850001343BB607B681B68BA689A607B6801225F
:1048600083F83D207B68002283F83C200023184613
:104870001437BD4680BC7047002C01400004004046
:104880000008004080B483B000AF786000BF0C37F0
:10489000BD4680BC704780B483B000AF786000BF75
:1048A0000C37BD4680BC704780B582B000AF7860E1
:1048B0007B68002B01D1012342E07B6893F84130F3
:1048C000DBB2002B06D17B68002283F84020786899
:1048D000FDF79AF97B68242283F841207B681B68E6
:1048E000DA687B681B6822F40052DA60786800F0AE
:1048F0007FFD7B681B681A697B681B6822F4904205
:104900001A617B681B685A697B681B6822F02A025F
:104910005A617B681B68DA687B681B6842F4005246
:10492000DA607B6800225A647B68202283F8412089
:104930007B68202283F842207B6800225A63002390
:1049400018460837BD4680BD80B58AB002AFF86012
:10495000B9603B601346FB8000237B61FB6893F8E2
:104960004230DBB2202B7CD1BB68002B02D0FB880D
:10497000002B01D1012375E0FB6800225A64FB681B
:10498000222283F84220FB6800221A63FDF7AEFA68
:104990007861FB68FA889A85FB68FA88DA85FB6893
:1049A0009B68B3F5805F08D1FB681B69002B04D1BD
:1049B0000023FB61BB68BB6103E0BB68FB610023B4
:1049C000BB6143E03B6800937B6900222021F868CB
:1049D00000F004FB0346002B01D0032342E0FB69F7
:1049E000002B0CD1FB681B685B689BB2C3F3080308
:1049F0009AB2BB691A80BB690233BB611FE0FB68D6
:104A00009B68B3F5805F07D0FB689B68002B0AD1D9
:104A1000FB681B69002B06D1FB681B685B68DAB278
:104A2000FB691A7008E0FB681B685B68DBB203F087
:104A30007F03DAB2FB691A70FB690133FB61FB6823
:104A4000DB8D9BB2013B9AB2FB68DA85FB68DB8D9C
:104A50009BB2002BB6D1FB68202283F842200023B2
:104A600000E0022318462037BD4680BD80B5BAB0AD
:104A700000AF78607B681B681B68C7F8E4307B6810
:104A80001B68DB68C7F8E0307B681B685B69C7F8A8
:104A9000DC300023C7F8D8300023C7F8D430D7F86B
:104AA000E43003F00F03C7F8D830D7F8D830002B24
:104AB0000FD1D7F8E43003F02003002B09D0D7F84A
:104AC000E03003F02003002B03D0786800F0D1FB26
:104AD0005BE2D7F8D830002B00F0DE80D7F8DC306E
:104AE00003F00103002B06D1D7F8E03003F49073F4
:104AF000002B00F0D180D7F8E43003F00103002B45
:104B00000BD0D7F8E03003F48073002B05D07B681E
:104B10005B6C43F001027B685A64D7F8E43003F021
:104B20000403002B0BD0D7F8DC3003F00103002B7B
:104B300005D07B685B6C43F002027B685A64D7F84F
:104B4000E43003F00203002B0BD0D7F8DC3003F085
:104B50000103002B05D07B685B6C43F004027B688B
:104B60005A64D7F8E43003F00803002B11D0D7F8CB
:104B7000E03003F02003002B05D1D7F8DC3003F040
:104B80000103002B05D07B685B6C43F008027B6857
:104B90005A647B685B6C002B00F0F281D7F8E4303C
:104BA00003F02003002B08D0D7F8E03003F02003F7
:104BB000002B02D0786800F05CFB7B681B685B69A7
:104BC00003F04003002B14BF01230023DBB2C7F81E
:104BD000D4307B685B6C03F00803002B03D1D7F85B
:104BE000D430002B4FD0786800F066FA7B681B68E1
:104BF0005B6903F04003002B41D07B681B681433D2
:104C0000C7F89C30D7F89C3053E8003FC7F898307D
:104C1000D7F8983023F04003C7F8D0307B681B6882
:104C20001433D7F8D020C7F8A820C7F8A430D7F895
:104C3000A410D7F8A82041E80023C7F8A030D7F87F
:104C4000A030002BD9D17B68DB6B002B13D07B68A5
:104C5000DB6B7E4A5A637B68DB6B1846FDF78CFE84
:104C60000346002B16D07B68DB6B5B6B7A68D26BDC
:104C7000104698470EE0786800F09CF90AE07868E2
:104C800000F098F906E0786800F094F97B6800225B
:104C90005A6475E100BF73E17B681B6B012B40F028
:104CA0004F81D7F8E43003F01003002B00F0488167
:104CB000D7F8E03003F01003002B00F0418100230F
:104CC000BB607B681B681B68BB607B681B685B689C
:104CD000BB60BB687B681B685B6903F04003002B0B
:104CE00000F0B6807B68DB6B1B685B68A7F8BE30A2
:104CF000B7F8BE30002B00F045817B689B8DB7F87C
:104D0000BE209A4280F03E817B68B7F8BE20DA85EB
:104D10007B68DB6B9B69202B00F088807B681B68BD
:104D20000C33C7F88830D7F8883053E8003FC7F80D
:104D30008430D7F8843023F48073C7F8B8307B68A8
:104D40001B680C33D7F8B820C7F89420C7F8903008
:104D5000D7F89010D7F8942041E80023C7F88C309A
:104D6000D7F88C30002BD9D17B681B6814337B6754
:104D70007B6F53E8003F3B673B6F23F00103C7F8AD
:104D8000B4307B681B681433D7F8B420C7F8802090
:104D9000FB67F96FD7F8802041E80023BB67BB6F42
:104DA000002BE1D17B681B6814333B663B6E53E8F4
:104DB000003FFB65FB6D23F04003C7F8B0307B6814
:104DC0001B681433D7F8B020FA66BB66B96EFA6E6A
:104DD00041E800237B667B6E002BE3D17B682022B9
:104DE00083F842207B6800221A637B681B680C33BF
:104DF000FB64FB6C53E8003FBB64BB6C23F0100307
:104E0000C7F8AC307B681B680C33D7F8AC20BA65A8
:104E10007B65796DBA6D41E800233B653B6D002BE6
:104E2000E3D17B68DB6B1846FDF76BFD7B680222E4
:104E30005A637B689A8D7B68DB8D9BB2D31A9BB2D9
:104E40001946786800F0BFF89CE000BF7D5100086B
:104E50007B689A8D7B68DB8D9BB2D31AA7F8CE3026
:104E60007B68DB8D9BB2002B00F08E80B7F8CE30D4
:104E7000002B00F089807B681B680C33BB63BB6B25
:104E800053E8003F7B637B6B23F49073C7F8C83013
:104E90007B681B680C33D7F8C8207A643B64396C94
:104EA0007A6C41E80023FB63FB6B002BE3D17B684A
:104EB0001B6814337B627B6A53E8003F3B623B6AAA
:104EC00023F00103C7F8C4307B681B681433D7F89C
:104ED000C4203A63FB62F96A3A6B41E80023BB6283
:104EE000BB6A002BE3D17B68202283F842207B68D9
:104EF00000221A637B681B680C333B613B6953E8F3
:104F0000003FFB60FB6823F01003C7F8C0307B68EC
:104F10001B680C33D7F8C020FA61BB61B969FA6924
:104F200041E800237B617B69002BE3D17B6802228F
:104F30005A63B7F8CE301946786800F044F823E099
:104F4000D7F8E43003F08003002B09D0D7F8E03025
:104F500003F08003002B03D0786800F023F914E0FD
:104F6000D7F8E43003F04003002B0ED0D7F8E03040
:104F700003F04003002B08D0786800F062F904E0E9
:104F800000BF02E000BF00E000BFE837BD4680BDC3
:104F900080B483B000AF786000BF0C37BD4680BCE2
:104FA000704780B483B000AF786000BF0C37BD4657
:104FB00080BC704780B483B000AF786000BF0C370E
:104FC000BD4680BC704780B483B000AF78600B46AC
:104FD0007B8000BF0C37BD4680BC704780B590B069
:104FE00000AFF860B9603B601346FB7150E0BB6CEA
:104FF000B3F1FF3F4CD0BB6C002B07D0FCF776FF22
:1050000002463B68D31ABA6C9A4241D2FB681B68CD
:105010000C33BB62BB6A53E8003F7B627B6A23F4BC
:10502000D073FB63FB681B680C33FA6B7A633B63DA
:10503000396B7A6B41E80023FB62FB6A002BE5D1F8
:10504000FB681B6814337B617B6953E8003F3B615D
:105050003B6923F00103BB63FB681B681433BA6B25
:105060003A62FB61F9693A6A41E80023BB61BB69B6
:10507000002BE5D1FB68202283F84120FB68202229
:1050800083F84220FB68002283F8402003230FE0CE
:10509000FB681B681A68BB681340BA689A420CBF69
:1050A00001230023DBB21A46FB799A429FD00023EA
:1050B00018464037BD4680BD80B495B000AF7860DB
:1050C0007B681B680C337B637B6B53E8003F3B635F
:1050D0003B6B23F49073FB647B681B680C33FA6CA6
:1050E0003A64FB63F96B3A6C41E80023BB63BB6B2A
:1050F000002BE5D17B681B6814333B623B6A53E8A5
:10510000003FFB61FB6923F00103BB647B681B6804
:105110001433BA6CFA62BB62B96AFA6A41E80023D6
:105120007B627B6A002BE5D17B681B6B012B19D15D
:105130007B681B680C33FB60FB6853E8003FBB6077
:10514000BB6823F010037B647B681B680C337A6CAC
:10515000BA617B617969BA6941E800233B613B69C7
:10516000002BE5D17B68202283F842207B68002257
:105170001A6300BF5437BD4680BC704780B584B009
:1051800000AF78607B685B6AFB60FB680022DA85B1
:10519000FB680022DA84F868FFF70CFF00BF1037C5
:1051A000BD4680BD80B485B000AF78607B6893F861
:1051B0004130DBB2212B3ED17B689B68B3F5805F29
:1051C00014D17B681B69002B10D17B681B6AFB60C4
:1051D000FB681B881A467B681B68C2F308025A608A
:1051E0007B681B6A9A1C7B681A6208E07B681B6AF2
:1051F000591C7A6811621A787B681B685A607B6850
:10520000DB8C9BB2013B9BB27A681946D184002BA0
:105210000FD17B681B68DA687B681B6822F080020C
:10522000DA607B681B68DA687B681B6842F04002C2
:10523000DA60002300E0022318461437BD4680BC24
:10524000704780B582B000AF78607B681B68DA6811
:105250007B681B6822F04002DA607B68202283F8BA
:1052600041207868FFF794FE002318460837BD46B2
:1052700080BD80B58CB000AF78607B6893F8423019
:10528000DBB2222B40F0AE807B689B68B3F5805F79
:1052900017D17B681B69002B13D10023FB627B684D
:1052A0009B6ABB627B681B685B689BB2C3F30803A5
:1052B0009AB2BB6A1A807B689B6A9A1C7B689A6266
:1052C00026E07B689B6AFB620023BB627B689B686D
:1052D000B3F5805F07D07B689B68002B0AD17B68A1
:1052E0001B69002B06D17B681B685B68DAB2FB6A1E
:1052F0001A7008E07B681B685B68DBB203F07F0311
:10530000DAB2FB6A1A707B689B6A5A1C7B689A62E5
:105310007B68DB8D9BB2013B9BB27A681946D185D5
:10532000002B5DD17B681B68DA687B681B6822F004
:105330002002DA607B681B68DA687B681B6822F4ED
:105340008072DA607B681B685A697B681B6822F090
:1053500001025A617B68202283F842207B68002288
:105360005A637B681B6B012B35D17B6800221A6363
:105370007B681B680C337B617B6953E8003F3B61B2
:105380003B6923F010037B627B681B680C337A6AED
:105390003A62FB61F9693A6A41E80023BB61BB6983
:1053A000002BE5D17B681B681B6803F01003102BF2
:1053B0000AD10023FB607B681B681B68FB607B686D
:1053C0001B685B68FB60FB687B689B8D194678688F
:1053D000FFF7F9FD02E07868FFF7E3FD002302E044
:1053E000002300E0022318463037BD4680BD000090
:1053F00080B584B000AF78607B681B681B6923F4BC
:1054000040517B68DA687B681B680A431A617B68D5
:105410009A687B681B691A437B685B691343BB60AE
:105420007B681B68DB6823F4B05323F00C037A68B5
:105430001268B9680B43D3607B681B685B6923F40F
:1054400040717B689A697B681B680A435A617B6874
:105450001B682C4A934203D1FEF798F8F86002E0EB
:10546000FEF780F8F860FA6813469B0013449A0030
:105470001A447B685B689B00B2FBF3F3224AA2FBF1
:1054800003235B091901FA6813469B0013449A0031
:105490001A447B685B689B00B2FBF3F21A4BA3FBD8
:1054A00002035B09642000FB03F3D31A1B013233B0
:1054B000154AA2FB03235B0903F0F0031944FA68C1
:1054C00013469B0013449A001A447B685B689B0058
:1054D000B2FBF3F20C4BA3FB02035B09642000FB5D
:1054E00003F3D31A1B013233074AA2FB03235B09E0
:1054F00003F00F027B681B680A449A6000BF1037F4
:10550000BD4680BD003801401F85EB5180B485B099
:1055100000AF0346FB800023FB60B7F90630842B05
:1055200005D0B7F90620FB6813440333FB60FB6822
:1055300018461437BD4680BC704780B500AF01F0F7
:1055400091F90023184680BDF0B589B004AF7860AA
:1055500039607B685B69002B20D07B689B69002BDE
:105560001CD07B685C687B681D687B681E697B68F3
:10557000B3F908301846FFF7C9FF01467B685B693D
:105580007A6892690292019300913B6832462946FB
:10559000204600F002FF0346FB601CE07B685C686D
:1055A0007B681D687B681B699EB27B68B3F9083015
:1055B0001846FFF7ABFF024607F10C030193009278
:1055C0003B6832462946204600F043FF0346012B44
:1055D00001D0002300E0FB6818461437BD46F0BD3B
:1055E00080B582B000AF7860786801F077F800236A
:1055F00018460837BD4680BD80B584B000AF7860DE
:105600007B68FB60FB68002B01D0FB6800E0012396
:10561000184601F0F3F8002318461037BD4680BD48
:1056200080B586B002AF786039607B685B68002B1C
:105630000FD03B68012B0AD17B685B680322009284
:1056400000220021012000F0C9FA034616E00023E1
:1056500014E03B68012B10D103220021012000F04F
:1056600034FBF860FB68002B05D0002300220021EA
:10567000F86800F087FBFB6800E00023184610374D
:10568000BD4680BD80B582B000AF1C2002F0B0F9ED
:1056900078607B68002B0AD07B6800221A607B68E8
:1056A0000433184600F082F97B6800221A767B6882
:1056B00018460837BD4680BD80B590B000AFF86091
:1056C000B9607A603B60FB687B630023BB630023A7
:1056D0003B63FB68002B0AD14FF0500383F3118822
:1056E000BFF36F8FBFF34F8F3B6200BFFEE7BB6816
:1056F00003F07F43002B0AD04FF0500383F311884F
:10570000BFF36F8FBFF34F8FFB6100BFFEE7BB6836
:10571000002B0AD14FF0500383F31188BFF36F8F32
:10572000BFF34F8FBB6100BFFEE701F055FD03469D
:10573000002B02D1BB6C002B01D1012300E0002320
:10574000002B0AD14FF0500383F31188BFF36F8F02
:10575000BFF34F8F7B6100BFFEE701F0EDF87B6B7D
:105760001B68FB623A68B968F86A00F0FEF8B86234
:10577000BB6A002B0ED0FB6AFB630023BB647B6813
:10578000002B28D07B6B1A68BB68DB431A407B6B0D
:105790001A6020E0BB6C002B04D1FB6AFB63012381
:1057A0003B6318E07B68002B03D0BB6B43F0807336
:1057B000BB633B68002B03D0BB6B43F08063BB63D0
:1057C0007B6B181DBA68BB6B1343BA6C194601F0AA
:1057D000A1FA0023FB6301F0BDF87862BB6C002BDB
:1057E00031D07B6A002B07D1194B4FF080521A60E1
:1057F000BFF34F8FBFF36F8F01F0B8FEF863FB6B01
:1058000003F00073002B1AD102F030F87B6B1B6899
:10581000FB633A68B968F86B00F0A7F80346002B01
:1058200009D07B68002B06D07B6B1A68BB68DB4312
:105830001A407B6B1A6001233B6302F047F8FB6B55
:1058400023F07F43FB63FB6B18464037BD4680BDAA
:1058500004ED00E080B58EB000AF786039600023C1
:105860003B637B68BB620023FB627B68002B0AD131
:105870004FF0500383F31188BFF36F8FBFF34F8F47
:105880003B6100BFFEE73B6803F07F43002B0AD07B
:105890004FF0500383F31188BFF36F8FBFF34F8F27
:1058A000FB6000BFFEE7BB6A04337B627B6A0833A0
:1058B0003B6201F041F87B6ADB687B63BB6A1A6874
:1058C0003B681A43BB6A1A603CE07B6B5B68FB6118
:1058D0007B6B1B68BB610023FB62BB6903F07F43EA
:1058E0007B61BB6923F07F43BB617B6903F080630D
:1058F000002B08D1BB6A1A68BB691340002B0BD080
:105900000123FB6208E0BB6A1A68BB691340BA69ED
:105910009A4201D10123FB62FB6A002B10D07B6904
:1059200003F08073002B03D03A6BBB6913433B63D6
:10593000BB6A1B6843F000731946786B01F088FA64
:10594000FB697B637A6B3B6A9A42BED1BB6A1A6879
:105950003B6BDB431A40BB6A1A6000F0FBFFBB6A7B
:105960001B6818463837BD4680BD80B487B000AF8D
:10597000F860B9607A6000237B617B68002B07D1F7
:10598000FA68BB681340002B0AD001237B6107E053
:10599000FA68BB681340BA689A4201D101237B615F
:1059A0007B6918461C37BD4680BC704780B483B005
:1059B00000AF78607B6803F108027B685A607B68FF
:1059C0004FF0FF329A607B6803F108027B68DA606F
:1059D0007B6803F108027B681A617B6800221A6009
:1059E00000BF0C37BD4680BC704780B483B000AFA9
:1059F00078607B6800221A6100BF0C37BD4680BC0E
:105A0000704780B485B000AF786039607B685B68B0
:105A1000FB603B68FA685A60FB689A683B689A606A
:105A2000FB689B683A685A60FB683A689A603B6812
:105A30007A681A617B681B685A1C7B681A6000BF11
:105A40001437BD4680BC704780B485B000AF786025
:105A500039603B681B68BB60BB68B3F1FF3F03D193
:105A60007B681B69FB600CE07B680833FB6002E02D
:105A7000FB685B68FB60FB685B681B68BA689A42FE
:105A8000F6D2FB685A683B685A603B685B683A68C4
:105A90009A603B68FA689A60FB683A685A603B68AB
:105AA0007A681A617B681B685A1C7B681A6000BFA1
:105AB0001437BD4680BC704780B485B000AF7860B5
:105AC0007B681B69FB607B685B687A6892689A6098
:105AD0007B689B687A6852685A60FB685B687A6882
